:020000040800F2
:10000000D80C0020C5220008C9050008CB0500084F
:10001000CF050008D3050008D70500080000000040
:10002000000000000000000000000000DB050008E8
:10003000DD05000800000000DF050008E1050008FC
:10004000DF220008DF220008DF2200085B0C000826
:10005000DF220008DF220008DF220008DF2200087C
:10006000DF220008DF220008DF220008DF2200086C
:10007000DF220008DF220008DF220008DF2200085C
:10008000DF220008DF220008DF220008DF2200084C
:10009000DF220008DF220008DF220008DF2200083C
:1000A000DF220008FD1B0008DF220008DF22000815
:1000B000DF220008E71F0008A14A0008DF2200082D
:1000C000DF220008DF220008DF220008DF2200080C
:1000D000DF2200083B220008DF220008DF220008A0
:1000E000DF220008DF220008DF220008DF220008EC
:1000F00009180008DF220008DF220008DF220008BC
:10010000DF220008DF220008DF220008DF220008CB
:10011000DF220008DF220008311F0008DF2200086C
:10012000DF220008DF220008DF220008DF220008AB
:1001300000F002F800F06BF80AA090E8000C82448E
:100140008344AAF10107DA4501D100F060F8AFF26B
:10015000090EBAE80F0013F0010F18BFFB1A43F0A5
:1001600001031847DC780000FC7800000A444FF0D7
:10017000000C10F8013B13F0070408BF10F8014B06
:100180001D1108BF10F8015B641E05D010F8016B4B
:10019000641E01F8016BF9D113F0080F1EBF10F8AF
:1001A000014BAD1C0C1B09D16D1E58BF01F801CBD2
:1001B000FAD505E014F8016B01F8016B6D1EF9D555
:1001C0009142D6D37047000000230024002500266A
:1001D000103A28BF78C1FBD8520728BF30C148BFAA
:1001E0000B607047642905F02F82752905F02C8279
:1001F000782905F06582632905F0B983732905F034
:10020000BE83002070471FB51FBD10B510BD05F09F
:10021000E9FB1146FFF7F7FF00F06BF805F007FC6C
:1002200003B4FFF7F2FF03BC01F0ACFF38B528219F
:100230000D2001F011FA04461023BEA20021084649
:1002400000F04BFF102004232246002100903020B4
:1002500000F0F9FE00F0CAFD38BDF8B500250A200F
:1002600095FBF0F100FB115010BB01F037F904468B
:100270001023B2A23021002000F02FFF0A2094FBAF
:10028000F0F610200223324630210090282000F0A2
:10029000DAFE0A2094FBF0F100FB11461020012346
:1002A000324630210090402000F0CDFE00F09EFD4F
:1002B000F8BD38B528210C2001F0CEF904461023F2
:1002C000A1A22021002000F008FF102004232246D4
:1002D00020210090084600F0B6FE10200423009074
:1002E0009B4802882021502000F0ADFE00F07EFDEA
:1002F00038BD08B501F0DCFE4FF4A06002F002F852
:100300004FF4E13001F04DFF00F05CFA00F080FAAC
:1003100000F012FF8F4800688F49B0FBF1F0C4B2C3
:100320008E4841682046884701F0C1FB01F0E4F99E
:10033000472140F2E73001F0D8FB472140F2E73097
:1003400001F0F5F941F61F4142F20F7001F0C2FDD4
:10035000002140F2CF2001F059FE00F01EFC01F018
:1003600009F901F09EF8E4E0002000F06BFA7C4906
:10037000087008460078002841D008460078012817
:100380002ED0022818D0032802D0052836D12EE01E
:100390006F4800880A386E4908800846008800289F
:1003A00002DC0020088006E069480088782802DB2B
:1003B00078206749088021E0654800880A30644950
:1003C000088008460088782802DB0020088006E0C4
:1003D0005F480088002802DC00205D4908800DE0AD
:1003E0000020604908701E205F49087006E0012067
:1003F0005C4908701E205D49087000BF00BF54486A
:1004000001885B4803F0A6FD5648007800287DD19E
:10041000FFF74FFFFFF721FF102356A200210846E8
:1004200000F05BFE102356A21946002000F055FE96
:10043000102000905548828804230021084600F0CF
:1004400002FE1020009051488279022300212820CA
:1004500000F0F9FD102000904C48C27902230021E1
:10046000402000F0F0FD4948007A072836D2DFE846
:1004700000F0040B121920272E00102344A20021A3
:10048000582000F02AFE29E0102343A20021582022
:1004900000F023FE22E0102341A20021582000F0AA
:1004A0001CFE1BE0102340A20021582000F015FE86
:1004B00014E010233EA20021582000F00EFE0DE0B3
:1004C00010233DA20021582000F007FE06E0102373
:1004D0003BA20021582000F000FE00BF00BF10200A
:1004E00000902A48027802231021002000F0ABFD82
:1004F000102000902548427802231021182000F097
:10050000A2FD102000902148827800E007E002233D
:100510001021302000F097FD00F068FC09E0114840
:100520000078012805D1FFF781FE00F0C0FE00F041
:100530005DFC19E74C4556454C3A000054454D507A
:100540003A20202E204300005455523A000000006B
:10055000020000200800002040420F00B0000020F0
:100560000400002000000020490000204A00002074
:1005700000040040202020202F20202F20200000D9
:1005800020203A20203A202000000000A401002072
:1005900053756E2E000000004D6F6E2E000000009F
:1005A000547565732E0000005765642E000000002E
:1005B000546875722E0000004672692E000000001B
:1005C0005361742E00000000704700BFFEE700BFBB
:1005D000FEE700BFFEE700BFFEE7704770477047C9
:1005E000704700000CB50020019000906C48006836
:1005F00040F480306A49086000BF6948006800F430
:10060000003000900198401C0190009818B90198A2
:10061000B0F5A06FF1D16248006800F4003010B16D
:100620000120009001E0002000900098012843D1B3
:100630005C48006840F010005A49086008460068AD
:1006400020F0030008600846006840F002000860DF
:100650005348406852494860084640684860084628
:10066000406840F4806048600846406820F47C1090
:1006700048600846406840F4E81048600846006852
:1006800040F08070086000BF4548006800F00070CE
:100690000028F9D04248406820F0030040494860F3
:1006A0000846406840F00200486000BF3C4840688F
:1006B00000F00C000828F9D10CBD10B5FFF792FF2F
:1006C00010BD10B53648006840F00100344908609C
:1006D0000846406834490840314948600846006887
:1006E000324908402E4908600846006820F48020FE
:1006F00008600846406820F4FE0048604FF41F0080
:100700008860FFF7DAFF4FF000602949086010BDEC
:1007100010B5002100200022214B5B6803F00C0182
:1007200021B1042906D0082928D107E0214B224C09
:10073000236027E01F4B204C236023E0184B5B68AD
:1007400003F47010164B5B6803F48032022303EB52
:10075000904022B9194B4343174C23600DE0104BD6
:100760005B6803F4003323B1144B4343124C236002
:1007700003E0104B4343104C236003E00D4B0E4C41
:10078000236000BF00BF064B5B68C3F303130C4C30
:10079000E15C094B1B68CB40074C236010BD000097
:1007A00000100240002002400000FFF8FFFFF6FEAC
:1007B00008ED00E000127A000800002000093D006A
:1007C0000C00002008B50121482002F0EDF920209E
:1007D000ADF8000010208DF8030003208DF8020012
:1007E0006946094801F0BEFE2021074801F067FF75
:1007F0002020ADF800006946044801F0B3FE202136
:10080000024801F05CFF08BD000C014000180140E7
:1008100008B50121442002F0C7F95C20ADF80000C2
:1008200048208DF8030069463B4801F09BFE0120FB
:10083000ADF8000028208DF803006946374801F024
:1008400091FE08BD10B5044614B10120344908706A
:1008500033480078002843D010212F4801F015FFBD
:10086000A0B108212C4801F010FF78B104212A48DA
:1008700001F00BFF50B14021274801F006FF28B1DD
:100880000121264801F001FF012829D10A2001F0A9
:100890004CFC00202249087010211F4801F0F5FE91
:1008A00008B9012010BD08211B4801F0EEFE08B96F
:1008B0000220F7E70421184801F0E7FE08B90320F9
:1008C000F0E74021144801F0E0FE08B90520E9E70F
:1008D0000121124801F0D9FE01281BD10420E1E7D3
:1008E00010210D4801F0D1FE012813D108210A483A
:1008F00001F0CBFE01280DD10421074801F0C5FE0F
:10090000012807D10121054801F0BFFE10B90120DF
:10091000034908700020C5E70018014000080140A5
:100920001C00002008B503208DF8000000208DF881
:1009300001008DF8020001208DF80300684601F0E7
:10094000E6FC08BDF0B503460C461546642093FB53
:10095000F0F0C6B2642093FBF0F700FB1730C1B291
:10096000132E02DD01F16400C1B20846CF1701EB7E
:10097000977701EBA707BAB2072092FBF0F700FBCD
:10098000172082B25719601EDFF8D4C31CF800008C
:10099000384482B2CF1701EB9777BF10A1EB8707DE
:1009A0001FB9032C01DA501E82B2072092FBF0F728
:1009B00000FB1720C0B2F0BD0146CA1701EB9272CE
:1009C0009210A1EB820292B9642091FBF0F200FB3D
:1009D000121050B94FF4C87091FBF0F200FB1210E6
:1009E00008B9012070470020FCE70120FAE7002049
:1009F000F8E770B500260024002502F05DFB0646EE
:100A0000D848B6FBF0F4D8480088A0423CD0D6497C
:100A10000C8040F2B27510E02846FFF7CDFF40B1E0
:100A2000B4F5B77F02D3A4F5B77404E0681C85B2AF
:100A300006E0A4F26D14681C85B2B4F5B67FEBD85D
:100A400000BFCA488580002516E0C8498888FFF79E
:100A5000B3FF30B1012D04D11D2C01D31D3C09E0A1
:100A60000CE0C348405DA04203D8C148405D241A51
:100A700000E003E0681C85B21C2CE6D200BF681CB5
:100A8000BA498871601CC871B648B6FBF0F100FB2A
:100A900011644FF46160B4FBF0F0B44908704FF496
:100AA0006160B4FBF0F100FB11403C21B0FBF1F0C0
:100AB000AE4948704FF46160B4FBF0F100FB1140A7
:100AC0003C21B0FBF1F201FB1200A84988700B46F3
:100AD000DA7999799888FFF735FFA44908720020E0
:100AE00070BD2DE9F05F06460F4690469946DDE958
:100AF0000AAB002440F2B270864203DB40F63300BA
:100B0000864202DD0120BDE8F09F40F2B2750AE0A6
:100B10002846FFF751FF10B19648044401E096487B
:100B20000444681C85B2B542F2DB781EC7B20025CA
:100B300010E08F48405D40F2A321484304EBC0140D
:100B40003046FFF739FF18B1012D01D18548044423
:100B5000681C85B2BD42ECDBA8F1010040F2A32184
:100B6000484304EBC014C9EB4910C0EB092004EB67
:100B70000014CAEB0A1004EB80045C4401214FF01E
:100B8000C05002F01EF8012001F045FE204602F0A0
:100B90009CFA02F0CDFA0020B5E71CB50024012133
:100BA0004FF0C05002F00DF8012001F034FE042097
:100BB00001F04BFC45F25001884240D001F010FC9E
:100BC000012001F05EFF04E0601CC4B20A2001F0C5
:100BD000ACFA412001F0BDFE08B9FA2CF4DBFA2C86
:100BE00001DB01201CBD4FF4807001F066FF012085
:100BF00001F069FF02F09CFA02F0A3FA0121084615
:100C000002F03AFA02F094FA02F043FA47F6FF7063
:100C100002F068FA02F08CFA1E2028211223112219
:100C2000CDE90010042140F2E270FFF75AFF02F014
:100C300039FA45F25001042001F0FBFB07E002F015
:100C400080FA0121084602F017FA02F071FAFFF764
:100C500069FEFFF7CEFE0020C4E70EB5012002F0CA
:100C600095FA08B1FFF7C5FE022002F08FFAA0B195
:100C7000022002F09BFAFFF7BCFE3C4880783B491B
:100C800049783A4A1278CDE9002102903748C37971
:100C90008279818839A004F07BFC052002F086FA75
:100CA00002F046FA0EBD2DE9F05F06460F4690466B
:100CB0009946DDE90AAB002440F2B270864203DBBC
:100CC00040F63300864202DD0120BDE8F09F40F28D
:100CD000B2750AE02846FFF76FFE10B125480444BC
:100CE00001E025480444681C85B2B542F2DB781E59
:100CF000C7B2002510E01E48405D40F2A3214843E2
:100D000004EBC0143046FFF757FE18B1012D01D196
:100D100014480444681C85B2BD42ECDBA8F1010014
:100D200040F2A321484304EBC014C9EB4910C0EBC7
:100D3000092004EB0014CAEB0A1004EB80045C44A5
:100D400001214FF0C05001F03CFF012001F063FD94
:100D5000204602F0D5F902F0EBF90020B5E70000DB
:100D60005E610008805101001E000020A4010020E7
:100D70006A6100080085E2018033E101416C617223
:100D80006D2054696D653A25642D25642D256420F8
:100D900025643A25643A25640A00000010B5FE4B2C
:100DA00019600023FD4CC4F89831002214E00023A0
:100DB000FB4C236000F080031BB10123241D236042
:100DC00003E00023F64C241D23600123F44C236030
:100DD0004306180E531CDAB2082AE8DB0123EE4C56
:100DE0000C342360ED4CC4F88C3110BD30B50024B8
:100DF0001CE004F1B001C8B20021FFF7CFFF0021D1
:100E00000846FFF7CBFF00211020FFF7C7FF0025A2
:100E100008E0E44901EBC501085D0121FFF7BEFFD1
:100E2000681CC5B2802DF4DB601CC4B2082CE0DB6A
:100E300030BD00B500218D20FFF7B0FF0021142048
:100E4000FFF7ACFF0021AF20FFF7A8FF00BD00B502
:100E500000218D20FFF7A2FF00211020FFF79EFF49
:100E60000021AE20FFF79AFF00BD30B500240CE052
:100E7000002506E00020CB4901EBC5010855681CA0
:100E8000C5B2802DF6DB601CC4B2082CF0DBFFF786
:100E9000ADFF30BDF0B5144600267F2801DC3F29A8
:100EA00000DDF0BD0B46CF1701EB5777FF10C7F100
:100EB0000707FAB2CF1701EB5777FF10A1EBC7076F
:100EC000FDB2C5F107070123BB40DEB24CB1B54B03
:100ED00003EBC0039B5C3343B24F07EBC007BB542B
:100EE00008E0B04B03EBC0039B5CB343AD4F07EB93
:100EF000C007BB5400BFD4E72DE9F04706460F46B4
:100F000090469946DDF820A034460CE03D4606E0C8
:100F1000524629462046FFF7BDFF681CC5B24D4525
:100F2000F6DD601CC4B24445F0DDFFF75FFFBDE8AD
:100F3000F0872DE9F84F80460F4616461C46BA4604
:100F40002046E31704EB5373DB1021464FEAE47CA1
:100F500004EB5C7C4FEAEC0CA4EBCC0CBCF1000F76
:100F600002D04FF0010C01E04FF0000C6344224628
:100F700004EBD27C4FEA6C0C03FB0CF303F0FF0B89
:100F8000A6F12000C6B200254EE00C2C07D106EBDE
:100F90004600854901EB8000405D009013E0102C75
:100FA00005D1824800EB0610405D00900BE0182C44
:100FB00007D106EBC6007E4901EB8000405D009042
:100FC00001E0BDE8F88F4FF0000927E0009800F03D
:100FD000800028B1394640460A9AFFF75BFF09E0D6
:100FE0000A9808B9012000E0002002463946404630
:100FF000FFF750FF00984006000E0090781CC7B223
:10100000A7EB0A00A04205D1574608F1010000F005
:10101000FF0806E009F1010000F0FF09B9F1080F2F
:10102000D4DB00BF681CC5B25D45AEDB00BFC8E7BE
:1010300010B50246012000E050430B00A1F101046D
:10104000E1B2F9D110BD2DE9FF4F81B007469146BD
:101050001E460E9D4FF0000A002439E0301B401E52
:10106000C1B20A20FFF7E4FFB9FBF0F00A21B0FBA0
:10107000F1F201FB1208BAF1000F16D1701EA04266
:1010800013DDB8F1000F0ED10120AB4605EBDB718B
:10109000491001FB04710090C8B22B46202202992E
:1010A000FFF747FF12E04FF0010A0120AB4605EBC6
:1010B000DB71491001FB04710090C8B208F13001E6
:1010C000CAB22B460299FFF734FF00BF601CC4B2BE
:1010D000B442C3DB05B0BDE8F08FF8B506460F4655
:1010E00015461C4621E004EBD4714910C1F1800182
:1010F000B14202DA00263819C7B2C4F14000B84242
:1011000004DA002006460746FFF7AFFE01200090F4
:101110002A78234639463046FFF70BFF204604EB7A
:10112000D07106EB6101CEB26D1C28787E2802DCFE
:1011300028782028D7DAF8BD08B501214FF4987037
:1011400001F032FD4820ADF8000010208DF80300BA
:1011500003208DF802006946164801F003FA482181
:10116000144801F0ACFA0320ADF8000069461248BB
:1011700001F0F8F90321104801F0A1FA4FF4004002
:10118000ADF8000069460D4801F0ECF94FF400415C
:101190000A4801F094FA13E08C8122420080224236
:1011A00080012242AE01002076610008EA65000855
:1011B000DA6B0008001401400010014000200140DB
:1011C0000120494908604949C1F88C01002048497B
:1011D0000860642000F0A9FF01204649C1F8BC0165
:1011E0000021AE20FFF7DAFD0021D520FFF7D6FD64
:1011F00000215020FFF7D2FD0021A820FFF7CEFDEF
:1012000000213F20FFF7CAFD0021D320FFF7C6FDD4
:1012100000210846FFF7C2FD00214020FFF7BEFD78
:1012200000218D20FFF7BAFD00211420FFF7B6FD45
:1012300000212020FFF7B2FD00210220FFF7AEFDC4
:101240000021A120FFF7AAFD0021C020FFF7A6FD85
:101250000021DA20FFF7A2FD00211220FFF79EFDFA
:1012600000218120FFF79AFD0021EF20FFF796FD76
:101270000021D920FFF792FD0021F120FFF78EFD1C
:101280000021DB20FFF78AFD00213020FFF786FDDB
:101290000021A420FFF782FD0021A620FFF77EFD9C
:1012A0000021AF20FFF77AFDFFF7DFFD08BD00B595
:1012B000102311A230210020FFF70FFF10230EA2F0
:1012C00020210020FFF709FF10230BA21946002060
:1012D000FFF703FF102308A200215020FFF7FDFEB7
:1012E000FFF784FD00BD0000988122420080224269
:1012F000BC01244200002442202020202020202065
:1013000020202020202020200000000010B595483B
:10131000406820F47040934948600846406840F4B3
:101320004050486000209049086040F2EE2000F0F4
:10133000D8FE01208D49C1F8AC010F2000F0D1FE8C
:1013400010BD10B500248748406820F470408549DE
:1013500048600846406840F40040486004E0601C73
:10136000C4B2012000F0BDFE7F488038006808B19B
:10137000C82CF4DBC82C01DB012010BD002404E0E4
:10138000601CC4B2012000F0ACFE774880380068D1
:1013900008B9F02CF4DBF02C01DB0120EDE7002094
:1013A000EBE710B56F48406820F470406D49486025
:1013B0000846406840F44050486000206A49086090
:1013C000022000F08EFE01206849C1F8AC0165489A
:1013D000406820F47040634948600846406840F423
:1013E000004048600C2000F07CFE5F4880380068B8
:1013F00008B1012400E00024322000F072FE2046F3
:1014000010BD70B50026012508E0FFF7CAFF0446AD
:10141000E00140EA6600C6B2681CC5B2082DF4DDE2
:10142000304670BD70B504464E48406820F47040A8
:101430004C4948600846406840F4405048600125E7
:1014400020E004F0010664106EB1002046490860F7
:10145000022000F046FE01204449C1F8AC013C20C6
:1014600000F03FFE0CE000203F4908603C2000F007
:1014700038FE01203D49C1F8AC01022000F031FEE8
:10148000681CC5B2082DDCDD70BD10B5FFF73EFF4E
:10149000FFF757FFCC20FFF7C5FF4420FFF7C2FF3F
:1014A00010BD08B50121080201F07EFB4FF4006079
:1014B000ADF8000010208DF8030003208DF8020025
:1014C0006946284801F04EF84FF40061254801F0C4
:1014D000F6F8FFF71BFFFFF734FF08BD2DE9F84FC3
:1014E000FFF7D3FFFFF712FFFFF72BFFCC20FFF72B
:1014F00099FFBE20FFF796FFFFF783FF8346FFF7B4
:1015000080FF0446072C08DDE043C4B26FEA0B00FD
:1015100000F0FF0B4FF0000A01E04FF0010AA14676
:101520004FEA09200FFA80F909EB0B000FFA80F956
:10153000484604F09DFC009004F0ECFB07460022B6
:101540000B4B04F0E9FA054604F0B6FA0FFA80F9FD
:10155000BAF1000F02D04846BDE8F88FC9F100008B
:1015600000B2F9E700200140AC012442000024420F
:101570000000E43F00B587B001214FF4017001F095
:1015800013FB01214FF4047001F00EFB4FF40040F7
:1015900001F06EFA0220ADF8040000208DF807007B
:1015A00001A9504800F0DEFF0420ADF8040000203F
:1015B0008DF8070001A94C4800F0D4FF0820ADF8D1
:1015C000040000208DF8070001A9474800F0CAFF79
:1015D000464802F003FD002002908DF80C008DF8C3
:1015E0000D004FF4602004900020059001208DF83C
:1015F000180002A93D4802F018FD01213B4802F005
:1016000040FD3A4802F05FFD00BF384802F060FD3F
:101610000028FAD1354802F065FD00BF334802F0DA
:1016200066FD0028FAD107B000BD10B504460723B7
:10163000012221462D4802F090FD01212B4802F0A5
:1016400060FD00BF0221294802F0CCFE0028F9D03D
:10165000264802F0E9FD10BD2DE9F04107460C4691
:101660000025002608E03846FFF7DFFF0544052087
:1016700000F05BFD701CC6B2A642F4DBB5FBF4F0D3
:1016800080B2BDE8F0812DE9F0470A210120FFF783
:10169000E3FF8146484604F003FC824604F03AFB2F
:1016A00007464FF06632124B04F036FA054604F056
:1016B000D1F90446204604F0BBFB1FFA80F94846E6
:1016C00004F0EEFB0546214604F0CAFC0446094935
:1016D000204604F0F9FB0446204604F0A9FB80B242
:1016E000BDE8F087000801400010014000240140DF
:1016F00066664A3F00007A4408B50121080201F0FD
:1017000053FAC020ADF8000010208DF8030003202C
:101710008DF802006946FE4800F024FF4021FC4895
:1017200000F0CDFF8021FA4800F0C9FF08BD30B5B8
:1017300089B004460D460121480301F035FA012124
:10174000102001F031FA4FF40070ADF8200018209D
:101750008DF8230003208DF8220008A9ED4800F041
:1017600001FF05A802F02CF9ADF81840ADF81450AF
:101770000020ADF81A00ADF8160005A9E64801F002
:10178000F3FD0121E44802F025FC0121E24802F0CA
:101790009FFB0821E04802F0B3FB7020ADF8040085
:1017A0000120ADF806000020ADF808006010ADF88B
:1017B0000A000020ADF80C0001A9D74801F0EBFEAB
:1017C0000821D54802F07BFA0121D34802F028FA1B
:1017D00001221146D04802F03EF92C208DF800007D
:1017E00001208DF801008DF802008DF80300684695
:1017F00000F08DFD0121C84802F0ECFB0121C64834
:1018000002F00EF909B030BD10B50121C24802F056
:10181000D0FB002857D00121BF4802F0DBFBBF48B6
:101820000078002841D1BE48006848B1FF20BA497D
:1018300030310880BA480068401EB949086010E09D
:10184000B848007860B1B7480078401EB2493031DE
:1018500008800020B34908700120B049087000E0FA
:1018600024E00121AC4802F0FFF80121AA4802F06F
:10187000E3F80121A84802F0D3F8AB48007801282A
:1018800009D1A54830300088401CA849096808449F
:10189000A649086017E0A04830300088401CA349E2
:1018A0000968081AA14908600DE000BF01209B49A2
:1018B00008709F4908600021974802F0BDF8002198
:1018C000954802F0ADF810BD70B504469948B0FBDC
:1018D000F4F0401E85B229468F4802F037FB6910AC
:1018E0008D4802F03BFB00218B4802F02DFB0121CB
:1018F000894802F095F870BD70B504460D4616464D
:10190000002C00DC70BD8448008800F0010000B1AC
:10191000F8E7142D02D38848854200D9F2E78248BF
:1019200006700078854908607F480078012805D155
:101930007E48006820448249086007E07A480078C1
:1019400020B97A480068001B7D4908602046E117ED
:1019500004EB11610912724A1160E11704EB116185
:101960000912A4EB01216F4A117000206B49087025
:101970002846FFF7A9FF00BFC4E72DE9F04106465E
:101980000D46174640F6943006FB00F4002C01DCAF
:10199000BDE8F0816048008800F0010000B1F7E781
:1019A000142D02D36448854200D9F1E75E480770E0
:1019B0000078624908605C480078012805D15B48DE
:1019C000006820445E49086007E05748007820B965
:1019D00056480068001B5A4908602046E11704EB8E
:1019E000116109124E4A1160E11704EB11610912ED
:1019F000A4EB01214B4A1170002048490870284689
:101A0000FFF762FF00BFC3E770B505460C464248CA
:101A1000008800F0010000B170BD142C02D34648CC
:101A2000844200D9F8E74648056000683F490968E4
:101A300088423AD0424800683C490968884203DD40
:101A400001203949087002E0002037490870364803
:101A500000783A4908603A4A1268344B1B68D11A38
:101A6000002901DB0A4600E04A421046D21700EB8B
:101A7000126212122A4B1A60314A12682B4B1B68F1
:101A8000D11A002901DB0A4600E04A421046D2176B
:101A900000EB12621212A0EB0222224B1A700020FD
:101AA0001E4908702046FFF70FFF00BFB4E708B5D6
:101AB0000121080201F078F84FF44070ADF8000001
:101AC00010208DF8030003208DF8020069461048AD
:101AD00000F048FD4FF480710D4800F0F0FD4FF428
:101AE00000710B4800F0EBFD08BD30B589B004462D
:101AF0000D460121C80201F057F80121042001F030
:101B000053F84FF40060ADF8200018201AE00000F0
:101B1000002001400010014000340140210000205D
:101B20002800002020000020340000203000002089
:101B30002400002040420F00A086010098012442AA
:101B40002C0000208DF8230003208DF8220008A926
:101B5000D44800F007FD05A801F032FFADF81840A9
:101B6000ADF814500020ADF81A00ADF8160005A924
:101B7000CD4801F0F9FB0121CB4802F02BFA0121FD
:101B8000C94802F0A5F90821C74802F0B9F9702048
:101B9000ADF804000120ADF806000020ADF8080003
:101BA0006010ADF80A000020ADF80C0001A9BE4895
:101BB00001F0F1FC0821BC4802F081F80121BA488B
:101BC00002F02EF801221146B74801F044FF192017
:101BD0008DF8000001208DF801008DF802008DF8CD
:101BE0000300684600F093FB0121AF4802F0F2F9D0
:101BF0000121AD4801F014FF09B030BD10B501213D
:101C0000A94802F0D6F9002857D00121A64802F0D1
:101C1000E1F9A6480078002841D1A548006848B1FC
:101C2000FF20A14930310880A1480068401EA0492A
:101C3000086010E09F48007860B19E480078401E20
:101C400099493031088000209A490870012097494D
:101C5000087000E024E00121934801F005FF012114
:101C6000914801F0E9FE01218F4801F0D9FE924828
:101C70000078012809D18C4830300088401C8F49F9
:101C8000096808448D49086017E0874830300088AB
:101C9000401C8A490968081A884908600DE000BF9D
:101CA0000120824908708649086000217E4801F0C1
:101CB000C3FE00217C4801F0B3FE10BD70B50446A0
:101CC0008048B0FBF4F0401E85B22946764802F009
:101CD0003DF96910744802F041F90021724802F0A0
:101CE00033F90121704801F09BFE70BD70B50446C8
:101CF0000D461646002C00DC70BD6B48008800F0D5
:101D0000010000B1F8E7142D02D36F48854200D9D5
:101D1000F2E76948067000786C4908606648007808
:101D2000012805D16548006820446949086007E03A
:101D30006148007820B961480068001B6449086068
:101D40002046E11704EB11610912594A1160E117AD
:101D500004EB11610912A4EB0121564A1170002015
:101D6000524908702846FFF7A9FF00BFC4E72DE9D4
:101D7000F04106460D46174640F6943006FB00F447
:101D8000002C01DCBDE8F0814748008800F001002C
:101D900000B1F7E7142D02D34B48854200D9F1E793
:101DA0004548077000784949086043480078012891
:101DB00005D14248006820444549086007E03E4894
:101DC000007820B93D480068001B41490860204662
:101DD000E11704EB11610912354A1160E11704EBB8
:101DE00011610912A4EB0121324A117000202F4920
:101DF00008702846FFF762FF00BFC3E770B50546CD
:101E00000C462948008800F0010000B170BD142C78
:101E100002D32D48844200D9F8E72D4805600068B8
:101E20002649096888423AD0294800682349096848
:101E3000884203DD01202049087002E000201E498D
:101E400008701D48007821490860214A12681B4B20
:101E50001B68D11A002901DB0A4600E04A421046FD
:101E6000D21700EB12621212114B1A60184A126854
:101E7000124B1B68D11A002901DB0A4600E04A42D6
:101E80001046D21700EB12621212A0EB0222094B8D
:101E90001A700020054908702046FFF70FFF00BFA9
:101EA000B4E7000000080140002C0140360000208B
:101EB0003C000020350000204800002044000020A5
:101EC0003800002040420F00A0860100A0012442FB
:101ED000400000207FB505460C460121102000F08F
:101EE00070FEADF80450ADF800400020ADF80600DB
:101EF0001020ADF802006946654801F035FA01226C
:101F00001146634801F0A7FD36208DF80C00002033
:101F10008DF80D0003208DF80E0001208DF80F00C4
:101F200003A800F0F4F90121594801F079FD7FBDC3
:101F300010B50121564802F03CF830B30121544855
:101F400002F048F85348007820B953480078401E02
:101F5000514908704F480078012804D14F48007853
:101F6000401E4E4908704C48007828B90120494964
:101F700008701E20484908704848007828B9002099
:101F8000444908701E204549087010BD7FB50546BC
:101F90000C460121022000F014FEADF80850ADF807
:101FA00004400020ADF80A00ADF8060001A93C4845
:101FB00001F0DAF901221146394801F04CFD1D20EB
:101FC0008DF8000000208DF8010003208DF802003C
:101FD00001208DF80300684600F099F9012130488E
:101FE00001F01EFD7FBD10B501212D4801F0E1FF7C
:101FF00058B101212A4801F0EDFF2A48006808B9CC
:10200000012000E000202749086010BD30B589B0EC
:1020100005460C460121022000F0D3FD01210920D4
:1020200000F0C2FD0121204800F06DFB2020ADF83A
:10203000200018208DF8230003208DF8220008A925
:102040001A4800F08FFAADF81850ADF8144000208F
:10205000ADF81A00ADF8160005A9114801F084F991
:102060007020ADF804000120ADF806000020ADF8A6
:102070000C0001A90A4801F0F6F90821084801F00E
:1020800008FE0121064801F0CBFC09B030BD00007C
:102090000010004000000020490000204A000020FD
:1020A000000400409481214200081A00000C014005
:1020B00010B56FF0040000F074F92E4800682E4946
:1020C000B0FBF1F02D4908700846007800EB4001A4
:1020D000C1EBC0104FF6FF7101EAC000284908802B
:1020E00010BD0146254A12784A434FF0E0235A6159
:1020F00000229A611A46126942F001021A6100BF79
:102100004FF0E022106900F001021AB100F48032B1
:10211000002AF5D04FF0E022126922F001024FF0C0
:10212000E0231A6100229A6170470146144A12881E
:102130004A434FF0E0235A6100229A611A4612691D
:1021400042F001021A6100BF4FF0E022106900F076
:1021500001021AB100F48032002AF5D04FF0E022DB
:10216000126922F001024FF0E0231A6100229A6105
:10217000704700000800002000127A004C00002088
:102180004E000020014600BF704700BF494A128838
:1021900002F04002002AF9D0C2B2464B1B1D1A8041
:1021A000704710B586B00446012144F2040000F0E7
:1021B000FBFC4FF40070ADF8140003208DF81600FE
:1021C00018208DF8170005A93B4800F0CBF94FF413
:1021D0008060ADF8140004208DF8170005A936487A
:1021E00000F0C0F925208DF8000003208DF80100D3
:1021F0008DF8020001208DF80300684600F087F892
:1022000001940020ADF80800ADF80A00ADF80C000C
:10221000ADF810000C20ADF80E0001A9254800F023
:102220006AFD012240F22551224800F0FCFD012107
:10223000204800F0ECFD06B010BD10B540F225516D
:102240001C4800F0D5FE10B31A4800F051FEC4B28D
:102250001A48008800F40040C8B91848008800F403
:10226000804060B10A2C03D000201449088020E08F
:102270001248008840F400401049088019E00D2CF5
:1022800006D10E48008840F480400C49088010E0D8
:102290000A480088C0F30D0009490C54074800881B
:1022A000401C0649088008460088C72801DD002038
:1022B000088010BD00380140000801405400002093
:1022C000AE0500200948804709480047FEE7FEE7C1
:1022D000FEE7FEE7FEE7FEE7FEE7FEE7FEE7FEE7D6
:1022E00004480549054A064B70470000C30600082C
:1022F00031010008D8060020D80C0020D8080020A2
:10230000D808002031490143314A1160704770B547
:10231000002100230F22C47804B32D4C246804F458
:10232000E064C4F5E064210AC1F10403CA404478C2
:1023300004FA03F18478144021430901254C0678FE
:10234000A155047804F01F050124AC4005786D11F7
:10235000AD0005F1E025C5F8004109E0047804F07E
:102360001F050124AC401C4D0678761145F8264027
:1023700070BD1A4A0A400243154B1B1F1A60704772
:1023800039B1134A121D12680243114B1B1D1A600A
:1023900006E00F4A121D126882430D4B1B1D1A6086
:1023A0007047042808D14FF0E021096941F0040189
:1023B0004FF0E022116107E04FF0E021096921F0C0
:1023C00004014FF0E0221161704700000000FA059F
:1023D0000CED00E000E400E080E100E080FFFF1F82
:1023E00010B5012000F014FC002000F011FC10BD1D
:1023F0002A49086070472949091F08607047274922
:1024000084310860704701460020254A10884FF645
:102410007F4210400843224A108070470146002046
:102420001F4A10884FF68072104008431C4A1080E3
:10243000704708B500220092194A2C3A0092009A7F
:1024400002440092009A116008BD08B501460020C0
:10245000009013482C380090009808440090009891
:10246000008808BD0D489C300068C0B270470C4819
:102470000830008840F001000949083108807047A1
:102480000648A0300068C0B2704705480830008890
:1024900040F00200024908310880704704860D426E
:1024A0002C6C004010B50446CC48844208D1012170
:1024B000042000F093FB0021042000F08FFB46E095
:1024C000C748844208D10121082000F087FB002181
:1024D000082000F083FB3AE0C248844208D1012181
:1024E000102000F07BFB0021102000F077FB2EE095
:1024F000BD48844208D10121202000F06FFB00215B
:10250000202000F06BFB22E0B848844208D1012172
:10251000402000F063FB0021402000F05FFB16E04C
:10252000B348844208D10121802000F057FB0021EC
:10253000802000F053FB0AE0AE48844207D101211D
:10254000801500F04BFB0021A01500F047FB10BDEB
:1025500010B50121084600F041FB0021012000F0E8
:102560003DFB10BD2DE9F04102460025002600206C
:1025700000230024002791F803C00CF00F0591F808
:1025800003C00CF0100CBCF1000F03D091F802C096
:102590004CEA050591F800C0BCF1000F31D0146879
:1025A00000202BE04FF0010C0CFA00F3B1F800C052
:1025B0000CEA03069E4220D183004FF00F0C0CFA68
:1025C00003F7BC4305FA03FC4CEA040491F803C08A
:1025D000BCF1280F06D14FF0010C0CFA00FCC2F838
:1025E00014C00AE091F803C0BCF1480F05D14FF0C8
:1025F000010C0CFA00FCC2F810C0401C0828D1D312
:102600001460B1F800C0BCF1FF0F34DD5468002045
:102610002EE000F1080C4FF0010808FA0CF3B1F8B5
:1026200000C00CEA03069E4221D183004FF00F0C3C
:102630000CFA03F7BC4305FA03FC4CEA040491F8D6
:1026400003C0BCF1280F05D100F1080C08FA0CF802
:10265000C2F8148091F803C0BCF1480F07D100F113
:10266000080C4FF0010808FA0CF8C2F81080401C62
:102670000828CED35460BDE8F0814FF6FF71018089
:10268000022181700421C1707047024600209368C6
:102690000B400BB1012000E0002070470146886824
:1026A00080B2704702460020D3680B400BB1012076
:1026B00000E0002070470146C86880B270470161A1
:1026C0007047416170470AB1016100E041617047A4
:1026D000C16070474FF480320A4382618161826138
:1026E00082698269704702460020434B18684FF6A2
:1026F0008073184040EA021008433F4B186070474F
:102700003E49C8617047F0B50A4600230024002105
:10271000002500F00046B6F1004F02D1364EF169B7
:1027200001E0354E7168C0F3034583B200F44016F2
:10273000B6F5401F08D121F070612F4E766826F063
:1027400070662D4F7E6012E000F48016B6F5801F93
:1027500006D1032606FA05F4A14341F0706106E0B4
:10276000460D360103FA06F6B14341F0706122B11D
:10277000460D360103FA06F6314300F00046B6F185
:10278000004F02D11C4EF16101E01B4E7160F0BDA3
:1027900030B500228B071C0F0F2303FA04F2164BEF
:1027A00008338C1053F824309343134C08348D10A5
:1027B00044F8253023468C1053F824308C07240F1E
:1027C00000FA04F423430C4C08348D1044F82530EF
:1027D00030BD0A49DC310860704700000008014044
:1027E000000C01400010014000140140001801409D
:1027F000001C014000200140000001400000204278
:1028000010B50121080700F0F6F900214FF08050C3
:1028100000F0F1F910BD2A490862704728490861A3
:10282000704701460020274A106820F0E000084366
:10283000106070472249A0310860704710B5024609
:102840000020204B186820F00300104318601E4B36
:102850001B6843F004031C4C2360012901D130BFE5
:1028600000E020BF184B1B6823F00403164C2360C4
:1028700010BD1448006840F0040012490860084682
:10288000006840F0020008600F48006840F0040053
:102890000D49086000BF00BF30BF704701460020EF
:1028A000084A52680A400AB1012000E0002070473F
:1028B0000449096841EA8001024A1160704700003A
:1028C00000000E420070004010ED00E0DF4800689C
:1028D00040F00100DD49086008464068DC490840D6
:1028E000DA49486008460068DA490840D749086074
:1028F0000846006820F4802008600846406820F4FC
:10290000FE0048604FF41F0088607047CF49096897
:1029100021F48031CD4A11601146096821F48021EB
:102920001160B0F5803F03D0B0F5802F0ED106E0E6
:10293000C649096841F48031C44A116007E0C349BF
:10294000096841F4A021C14A116000E000BF00BF46
:10295000704710B501460022002300204A11012AC9
:1029600002D1BA4C236806E0022A02D1B74C236A8E
:1029700001E0B64C636A01F01F02012494401C4040
:102980000CB1012000E0002010BD38B500200090FF
:102990000024002500BF3120FFF7DBFF054600982B
:1029A000401C00900098B0F5A06F01D0002DF2D02F
:1029B0003120FFF7CEFF08B1012400E000242046BB
:1029C00038BD01460020A14A106820F0F80040EA16
:1029D000C10010607047A04908607047024600209F
:1029E0009A4B586820F47C1042EA01031843974B35
:1029F0005860704798490866704701460020934A1E
:102A0000506820F003000843506070478F484068CA
:102A100000F00C007047014600208C4A506820F0FE
:102A2000F00008435060704701460020874A506814
:102A300020F4E06008435060704701460020834A5C
:102A4000506820F4605040EAC1005060704729B1DE
:102A50007E4A527A02437D4B5A7204E07B4A527A94
:102A600082437A4B5A7270477B49D831086070476D
:102A700001460020754A506820F4404008435060E9
:102A800070470021714A20321170704A82F820107C
:102A9000012802D004280AD104E001216B4A203227
:102AA000117005E00521694A2032117000E000BF75
:102AB00000BF70476949086070476449096A01436B
:102AC000624A11627047654944390860704730B501
:102AD00000210022002400235C4D6D6805F00C01EC
:102AE00021B1042905D0082923D105E05C4D0560FA
:102AF00022E05B4D05601FE0544D6D6805F47012D7
:102B0000524D6D6805F48034022505EB92421CB9E4
:102B1000544D554305600BE04C4D6D6805F4003590
:102B20001DB1504D5543056002E04D4D55430560C4
:102B300002E04B4D056000BF00BF444D6D6805F0DD
:102B4000F0010909484D6B5C0568DD4045603F4D6B
:102B50006D6805F4E061090A434D6B5C4568DD4032
:102B600085603A4D6D6805F46051C90A3E4D6B5C55
:102B70004568DD40C560354D6D6805F44041890B01
:102B80003A4D6B5CC568B5FBF3F5056130BD29B105
:102B90002E4A526902432D4B5A6104E02B4A526976
:102BA00082432A4B5A61704729B1284A92690243ED
:102BB000264B9A6104E0254A92698243234B9A612D
:102BC000704729B1214AD2690243204BDA6104E0FF
:102BD0001E4AD26982431D4BDA61704729B11B4AF4
:102BE000D2680243194BDA6004E0184AD268824383
:102BF000164BDA60704729B1144A12690243134B2D
:102C00001A6104E0114A12698243104B1A6170473D
:102C100012494039086070470F49C86470470B4932
:102C2000C87170470948406A40F08070074948629F
:102C3000704701460020054A92680A400AB1012007
:102C400000E0002070470149887270470010024080
:102C50000000FFF8FFFFF6FE0000424280044242FF
:102C600000127A0000093D00560000206600002096
:102C700010B50446FB48844209D101218803FFF7BF
:102C8000ADFF00214FF48040FFF7A8FF32E0F64887
:102C9000844209D101214804FFF7ADFF00214FF420
:102CA0000030FFF7A8FF25E0F048844209D1012158
:102CB0008804FFF7A0FF00214FF48020FFF79BFF5F
:102CC00018E0EB48844209D10121C804FFF793FFC3
:102CD00000214FF40020FFF78EFF0BE0E54884420F
:102CE00008D101210805FFF786FF00214FF480106D
:102CF000FFF781FF10BD2DE9F04786B005460E466F
:102D00000024A24600BFA1460027B08900B100BF41
:102D10002F462C8A4CF6FF700440F08804432C8226
:102D2000AC894EF6F3100440B088318908437189AC
:102D300008430443AC81AC8A4FF6FF400440B0899D
:102D40000443AC8201A8FFF7C2FEC648874202D105
:102D5000DDF810A001E0DDF80CA0A88900F4004027
:102D600040B10AEBCA0000EB0A1031684900B0FB21
:102D7000F1F807E00AEBCA0000EB0A10316889009D
:102D8000B0FBF1F86420B8FBF0F0040120096421E5
:102D900001FB1089A88900F4004040B1322000EB0B
:102DA000C900B0FBF1F000F00700044308E0322056
:102DB00000EB09106421B0FBF1F000F00F000443B8
:102DC0002C8106B0BDE8F0874FF416510160002158
:102DD0008180C18001810C21418100218181704766
:102DE00010B502460020108A4FF2FF0318400B88EE
:102DF0004C8823438C882343CC8823431843108278
:102E000010BD0021018041808180C180704721B1C7
:102E1000828942F40052828104E082894DF6FF7378
:102E20001A4082817047F0B5034600240026002531
:102E3000002040F66A17B94200D100BF1846C1F31E
:102E4000421401F01F06012707FA06F5012C01D1F3
:102E50000C3004E0022C01D1103000E014301AB123
:102E600007682F43076002E00768AF430760F0BDC3
:102E70001AB1838A0B43838202E0838A8B43838265
:102E80007047028A4FF6F0731A400282028A0A43A0
:102E90000282704782894FF2FF731A4082818289D1
:102EA0000A438281704721B1828942F00202828105
:102EB00004E082894FF6FD731A4082817047028ACE
:102EC0004FF6DF731A400282028A0A430282704779
:102ED00021B1028A42F48042028204E0028A4BF667
:102EE000FF731A4002827047C1F308028280704764
:102EF00001468888C0F308007047818941F00101CC
:102F000081817047028BD2B20283028B42EA012296
:102F100002837047028B02F47F420283028B0A43D2
:102F20000283704721B1828A42F02002828204E04B
:102F3000828A4FF6DF731A408282704721B1828AFB
:102F400042F01002828204E0828A4FF6EF731A4048
:102F50008282704721B1828A42F00802828204E0B4
:102F6000828A4FF6F7731A408282704721B18289B4
:102F700042F40042828103E08289C2F30E02828120
:102F8000704721B1828A42F40062828204E0828A20
:102F90004FF2FF731A4082827047828A4FF6FB73AA
:102FA0001A408282828A0A438282704721B1828AD1
:102FB00042F00202828204E0828A4FF6FD731A40D8
:102FC0008282704702460020B1F5007F00D100BF29
:102FD00013880B400BB1012000E00020704701F482
:102FE0000072B2F5007F00D100BFCA430280704773
:102FF00070B50246002400230025002040F66A1622
:10300000B14200D100BFC1F3421501F01F030126F8
:1030100006FA03F3012D02D19689334006E0022D12
:1030200002D1168A334001E0968A33400C12012601
:1030300006FA04F41688344013B10CB1012000E004
:10304000002070BD10B50022002340F66A14A14292
:1030500000D100BF0A1201249440A3B2DC430480D3
:1030600010BD00000038014000440040004800400E
:10307000004C00400050004029B1504A12880243E1
:103080004E4B1A8004E04D4A128882434B4B1A8003
:1030900070474A48001D008840F010004749091D4C
:1030A000088070474548001D00884FF6EF710840C2
:1030B0004249091D08807047002140481C300188A2
:1030C000001F008841EA0040704700B50246FFF744
:1030D000E0FF100C394918310880091D0A80FFF7FC
:1030E000E1FF00BD00B50246FFF7D3FFC2F3034086
:1030F000324908310880091D0A80FFF7D3FF00BD5F
:1031000000B50246FFF7C5FF100C2C49203108809E
:10311000091D0A80FFF7C6FF00BD002027491031B6
:1031200009880907080B25491431098808437047A5
:1031300000BF2248001D008800F020000028F8D0C1
:1031400070471E48001D00884FF6F77108401B4964
:10315000091D088000BF1948001D008800F0080004
:103160000028F8D0704701460020144A121D12882A
:103170000A400AB1012000E0002070470F49091DF4
:10318000098881430D4A121D1180704701460020B5
:103190000A4A121D12880A40D0B2084A12880A4010
:1031A00012B108B1012000E0002070470349091D59
:1031B00009888143014A121D118070470028004090
:1031C00010B50446FE48844208D10121C014FFF71F
:1031D00005FD0021E014FFF701FDC4E0B4F1804FCC
:1031E00008D101210846FFF706FD00210120FFF765
:1031F00002FDB8E0F348844208D101210220FFF724
:10320000FAFC00210220FFF7F6FCACE0EE48844215
:1032100008D101210420FFF7EEFC00210420FFF774
:10322000EAFCA0E0E948844208D101210820FFF728
:10323000E2FC00210820FFF7DEFC94E0E448844231
:1032400008D101211020FFF7D6FC00211020FFF744
:10325000D2FC88E0DF48844208D101212020FFF71A
:10326000CAFC00212020FFF7C6FC7CE0DA4884423B
:1032700008D101214014FFF7B1FC00216014FFF7D1
:10328000ADFC70E0D548844209D10121C804FFF7A4
:10329000A5FC00214FF40020FFF7A0FC63E0D0481C
:1032A000844209D101210805FFF798FC00214FF461
:1032B0008010FFF793FC56E0CA48844209D10121EF
:1032C0004805FFF78BFC00214FF40010FFF786FC48
:1032D00049E0C548844208D101214020FFF78BFC1A
:1032E00000214020FFF787FC3DE0C048844208D120
:1032F00001218020FFF77FFC00218020FFF77BFC6D
:1033000031E0BB48844208D101218015FFF773FCEE
:103310000021A015FFF76FFC25E0B648844209D1D3
:1033200001210804FFF75AFC00214FF48030FFF719
:1033300055FC18E0B048844209D101214804FFF748
:103340004DFC00214FF40030FFF748FC0BE0AB4888
:10335000844208D101218804FFF740FC00214FF48A
:103360008020FFF73BFC10BD00220288944B98425E
:103370000ED0994B98420BD0B0F1804F08D0914BB2
:10338000984205D0904B984202D0904B984204D17D
:103390004FF68F731A404B881A438D4B984207D0D3
:1033A0008C4B984204D04FF6FF431A40CB881A4307
:1033B00002808B8883850B880385814B98420BD0D4
:1033C000854B984208D08B4B984205D08A4B984247
:1033D00002D08A4B984201D10B7A03860123838263
:1033E000704770B5002400220023058C4FF6FE764E
:1033F00035400584028C8388048B4FF68F752C40F2
:10340000B51E2C400D882C43751E2A400D892A4379
:103410004D882A436A4DA8420BD06F4DA84208D070
:10342000744DA84205D0744DA84202D0734DA842F5
:1034300013D14FF6F7752A404D892A434FF6FB7595
:103440002A408D882A434FF6FF652B404FF6FF55E3
:103450002B408D892B43CD892B4383800483CD88DA
:103460008586028470BD70B5002400220023058C7F
:103470004FF6EF7635400584028C8388048B48F63E
:10348000FF752C404FF6FF452C400D884FF6FF7618
:1034900006EA05252C434FF6DF752A400D8906EA1A
:1034A00005152A434D8806EA05152A43444DA842CE
:1034B00002D0494DA8421DD14FF67F752A404D8953
:1034C0004FF6FF7606EA05152A434FF6BF752A40E8
:1034D0008D8806EA05152A434FF6FF352B404FF23B
:1034E000FF752B408D8906EA85052B43CD8906EAB9
:1034F00085052B4383800483CD880587028470BDB6
:1035000070B5002400220023058C4FF6FF6635407D
:103510000584028C8388848B4FF68F752C404FF680
:10352000FC752C400D882C434FF6FF552A400D8921
:103530004FF6FF7606EA05252A434D8806EA05255B
:103540002A431F4DA84202D0234DA8421DD14FF25D
:10355000FF752A404D894FF6FF7606EA05252A4376
:103560004FF6FF352A408D8806EA05252A434EF698
:10357000FF752B404DF6FF752B408D8906EA05152A
:103580002B43CD8906EA05152B4383808483CD88A0
:103590008587028470BD70B5002200230024058C4D
:1035A0004EF6FF7635400584038C8488828B48F67E
:1035B000FF752A404FF6FF452A400D8820E00000A5
:1035C000002C01400004004000080040000C0040B6
:1035D000001000400014004000340140004C014045
:1035E000005001400054014000180040001C004001
:1035F00000200040004001400044014000480140DC
:103600004FF6FF7606EA05252A434DF6FF752B4057
:103610000D8906EA05352B434D8806EA05352B430F
:10362000FA4DA84202D0FA4DA84208D14BF6FF75D8
:103630002C408D894FF6FF7606EA85152C43848051
:103640008283CD88A0F84050038470BD828B4FF2F6
:10365000FF331A408283828B4FF6FF7303EA012304
:103660001A4382837047F0B50C46154600220021AC
:103670000026078C4EF6FF7C07EA0C070784828B36
:10368000018C4FF6FF7707EA043640F6FF473A40D1
:103690004FF6FF7707EA05273A434FF6FF7707EA29
:1036A00003373A43D94FB8420ED0D94FB8420BD066
:1036B000B0F1804F08D0D74FB84205D0D64FB842AE
:1036C00002D0D64FB84206D14DF6FF77394046F4C6
:1036D0008057394305E047F6FF57394044F4805797
:1036E000394382830184F0BD828B4FF6F3731A4015
:1036F0008283828B0A4382837047F0B50C4615465D
:10370000002200210026078C4FF6FF6C07EA0C0709
:103710000784828B018C4FF6FF7707EA04264FF669
:103720000C773A404FF6FF7707EA03172F433A43E7
:10373000B64FB8420ED0B64FB8420BD0B0F1804F62
:1037400008D0B44FB84205D0B34FB84202D0B34FFF
:10375000B84206D14FF6FF57394046F480773943D7
:1037600005E04FF2FF57394044F4807739438283B4
:103770000184F0BD028B4FF2FF331A400283028BAB
:103780004FF6FF7303EA01231A4302837047F0B533
:103790000C461546002200210026078C4FF6EF7CD0
:1037A00007EA0C070784028B018C4FF6FF7707EAC4
:1037B000041640F6FF473A404FF6FF7707EA033713
:1037C0003A434FF6FF7707EA05273A438F4FB8424F
:1037D0000ED08F4FB8420BD0B0F1804F08D08D4F34
:1037E000B84205D08C4FB84202D08C4FB84206D1B7
:1037F0004FF6DF77394046F01007394305E04FF6C2
:103800005F77394044F01007394302830184F0BDEB
:10381000028B4FF6F3731A400283028B0A43028332
:103820007047F0B50C46154600220021068C4FF675
:10383000FE773E400684028B018C4FF60C763240B8
:103840007E1C06EA03162E433243704EB0420ED061
:103850006F4EB0420BD0B0F1804F08D06D4EB042E9
:1038600005D06D4EB04202D06C4EB04206D14FF63C
:10387000FD76314044F00106314305E04FF6F57620
:10388000314044F00106314302830184F0BD70B53C
:1038900005460C465D4885420ED05D4885420BD0FA
:1038A000B5F1804F08D05B48854205D05A48854223
:1038B00002D05A48854200D100E000BF208850B9AC
:1038C0002389A28861882846FFF7ABFFE188284654
:1038D000FFF79EFF25E0208804280AD12389A288CB
:1038E00061882846FFF753FFE1882846FFF742FF2B
:1038F00017E0208808280AD12389A28861882846F1
:10390000FFF7FBFEE1882846FFF7EEFE09E023897A
:10391000A28861882846FFF7A6FEE1882846FFF7BF
:1039200095FE70BD2DE9F04105460C4600260127A5
:10393000608808B9022600E00026A088012801D18D
:10394000022700E001272088A0B92389A288618886
:103950002846FFF766FFE1882846FFF759FF2389CD
:103960003A4631462846FFF712FFE1882846FFF71E
:1039700001FF13E02389A28861882846FFF707FF2B
:10398000E1882846FFF7F6FE23893A463146284665
:10399000FFF747FFE1882846FFF73AFFBDE8F081CF
:1039A0000A884B881A438B881A43CB881A430B89A1
:1039B0001A434B891A438B891A43A0F84420704755
:1039C0004FF6FF71818000210180C180418001722A
:1039D00070470021018041808180C1800181418147
:1039E0008181C18170470021018041800121818056
:1039F0000021C180018170470021018041808180C8
:103A0000C18001814181818170470000002C01400B
:103A1000003401400004004000080040000C004059
:103A200021B1028842F00102028004E002884FF6D0
:103A3000FE731A400280704731B1B0F8442042F45E
:103A40000042A0F8442005E0B0F84420C2F30E0282
:103A5000A0F8442070471AB183890B43838102E0A8
:103A600083898B43838170478182704741EA0203D7
:103A7000A0F8483070471AB183890B43838102E074
:103A800083898B438381704701894FF6F872114017
:103A9000018170470A46002101894FF68F73194052
:103AA00011430181704730B504460D462946204632
:103AB000FFF7F0FF208940F00700208130BD2DE99D
:103AC000F04104460D4616461F46602D06D13B4682
:103AD000012231462046FFF75AFE05E03B4601220F
:103AE00031462046FFF79DFE29462046FFF7D2FFCC
:103AF000208940F007002081BDE8F08130B50C46F8
:103B000000210189C9B24FF6FF7505EA0325154367
:103B100025432943018130BD2DE9F04105460E467C
:103B200017469846002443463A4631462846FFF752
:103B3000E5FF2C894FF6F870044044F007044FF677
:103B40008F70044044F070042C81BDE8F081F0B522
:103B500004460D4616461F463B4632462946204639
:103B6000FFF7CCFF208940F480402081F0BD018523
:103B7000828270470A46002101884FF68F731940F0
:103B8000114301807047F0B50C4615461E460021D2
:103B9000002200230189028B038C4FF6F87739400D
:103BA00021434FF6FC473A4040F201173A434FF6A3
:103BB000DD773B404FF6FF7707EA06172F433B437D
:103BC000018102830384F0BD0A460021018B4FF678
:103BD0008F7319401143018370470A460021018BFE
:103BE00048F6FF7319404FF6FF7303EA02231943A7
:103BF000018370470A460021818B4FF68F7319406D
:103C00001143818370470A460021818B48F6FF7378
:103C100019404FF6FF7303EA02231943818370476B
:103C200021B1028842F08002028004E002884FF64F
:103C30007F731A400280704721B1828842F00402EB
:103C4000828004E082884FF6FB731A4082807047BE
:103C500021B1828842F00802828004E082884FF617
:103C6000F7731A408280704721B1828842F00102C6
:103C7000828004E082884FF6FE731A40828070478B
:103C80000A460021018B4FF6F77319401143018357
:103C900070470A460021018B4FF2FF7319404FF61F
:103CA000FF7303EA02231943018370470A46002188
:103CB000818B4FF6F77319401143818370470A4691
:103CC0000021818B4FF2FF7319404FF6FF7303EA17
:103CD00002231943818370470A460021018B4FF666
:103CE000FB7319401143018370470A460021018B81
:103CF0004FF6FF3319404FF6FF7303EA02231943CF
:103D0000018370470A460021818B4FF6FB731940EF
:103D10001143818370470A460021818B4FF6FF33A0
:103D200019404FF6FF7303EA02231943818370475A
:103D30000A460021018B4FF67F731940114301831E
:103D400070470A460021018BC1F30E014FF6FF7345
:103D500003EA02231943018370470A460021818B3D
:103D60004FF67F7319401143818370470A46002143
:103D7000818BC1F30E014FF6FF7303EA022319434F
:103D8000818370470A460021018C4FF6FD7319406C
:103D90001143018470470A460021018C4FF6F773E6
:103DA00019401143018470470A460021018C4FF6E7
:103DB000DF7319404FF6FF7303EA021319430184BE
:103DC00070470A460021018C4FF67F7319404FF669
:103DD000FF7303EA02131943018470470A46002166
:103DE000018C4FF6FF5319404FF6FF7303EA02238D
:103DF0001943018470470A460021018C4FF2FF737A
:103E000019404FF6FF7303EA0223194301847047F8
:103E10000A460021018C4DF6FF7319404FF6FF73DF
:103E200003EA023319430184704730B500230124AB
:103E30008C40A3B2048C9C430484048C02FA01F5E8
:103E4000ADB22C43048430BD30B5002304248C4033
:103E5000A3B2048C9C430484048C02FA01F5ADB235
:103E60002C43048430BD70B503460020002418465E
:103E7000183001258D40ACB21D8CA5431D8409B1BD
:103E8000082909D100EB6100056825F0700505607F
:103E90000568154305600EE00D1FC5F34E05284467
:103EA000056825F4E045056005684FF6FF7606EAEB
:103EB00002263543056070BD21B1028842F002023E
:103EC000028004E002884FF6FD731A4002807047BA
:103ED00021B1028842F00402028004E002884FF619
:103EE000FB731A400280704721B1828842F0800241
:103EF000828004E082884FF67F731A408280704788
:103F000002884FF6F7731A40028002880A43028043
:103F1000704782884FF68F731A40828082880A43E6
:103F20008280704702894FF6F8731A400281028935
:103F30000A430281704702894FF67F731A4002815B
:103F400002890A43028170478184704781857047E6
:103F5000818670470187704781877047A0F84010BD
:103F6000704702884FF6FF431A40028002880A43D6
:103F7000028070470146888E70470146088F70475F
:103F80000146888F70470146B1F8400070470146EE
:103F9000888C70470146088D704702460020138ABE
:103FA0000B400BB1012000E000207047CA430282A1
:103FB000704730B50246002000230024158A05EA28
:103FC0000103958905EA010413B10CB1012000E059
:103FD000002030BDCA4302827047000010B504467D
:103FE000FA48844208D101214015FEF7F7FD00216F
:103FF0006015FEF7F3FD17E0F548844208D1012172
:104000000015FEF7EBFD00212015FEF7E7FD0BE0A4
:10401000F048844208D10121C803FEF7DFFD0021EA
:104020004FF40040FEF7DAFD10BD30B50246002027
:1040300000235068E84C20400D790C6844EA0524C0
:10404000204350609068E54C2040D1E902542C4355
:104050004D7944EA450420439060D06A20F4700012
:104060000C7C641EE4B2234340EA0350D06230BDAE
:1040700000210160017141718160C1600121017401
:10408000704721B1826842F00102826003E08268D9
:1040900022F001028260704721B1826842F480728E
:1040A000826003E0826822F480728260704710B5FB
:1040B0000023CBB21AB144681C43446002E0446858
:1040C0009C43446010BD816841F0080181607047E5
:1040D000014600208A6802F008020AB1012000E0CF
:1040E00000207047816841F00401816070470146FB
:1040F00000208A6802F004020AB1012000E00020DA
:10410000704721B1826842F4A002826003E08268B5
:1041100022F4A00282607047014600208A6802F4FF
:1041200080020AB1012000E00020704710B50A4665
:1041300000210023416821F46041531E41EA4331CC
:10414000416010BD21B1426842F40062426003E068
:10415000426822F4006242607047F0B504460D46A2
:1041600000200021092D11DDE068A5F10A0606EB0B
:104170004607072606FA07F18843A5F10A0606EB6B
:10418000460603FA06F10843E0600CE0206905EBFF
:104190004507072606FA07F1884305EB450603FAAB
:1041A00006F108432061072A0FDA606B561E06EB02
:1041B00086071F2606FA07F18843561E06EB860679
:1041C00005FA06F10843606322E00D2A0FDA206B3E
:1041D000D61F06EB86071F2606FA07F18843D61F6F
:1041E00006EB860605FA06F10843206310E0E06A54
:1041F000A2F10D0606EB86071F2606FA07F1884393
:10420000A2F10D0606EB860605FA06F10843E06208
:10421000F0BD21B1826842F48012826003E08268BE
:1042200022F48012826070470146C86C80B27047E9
:1042300066484C300068704721B1426842F48062A1
:10424000426003E0426822F480624260704721B11C
:10425000426842F48052426003E0426822F4805295
:10426000426070470A460021816821F4E041114311
:104270008160704721B1826842F40042826003E0AD
:10428000826822F400428260704721B1826842F461
:104290000212826003E0826822F402128260704798
:1042A000014600208A6802F400120AB1012000E0F1
:1042B00000207047F0B50446154600200022002675
:1042C000092911DDE068A1F10A0707EB470C072770
:1042D00007FA0CF29043A1F10A0707EB470703FA2C
:1042E00007F21043E0600CE0206901EB410C072766
:1042F00007FA0CF2904301EB410703FA07F210436F
:104300002061A06BC0F30156EF1C06F1010CA7EB76
:104310000C0707EB870C1F2707FA0CF29043EF1CE2
:1043200006F1010CA7EB0C0707EB870701FA07F270
:104330001043A063F0BD10B50A4600210023816B35
:1043400021F44011531E41EA0351816310BD08B5A9
:10435000002300930090009B0B440093009B1A6085
:1043600008BD08B5024600200090009201F1280027
:10437000009B184400900098006880B208BD0A466F
:1043800000214168164B194011434160704741625A
:10439000826270470A460021416821F01F011143E3
:1043A0004160704740B109490831096841F4000192
:1043B000064A0832116007E004490831096821F40F
:1043C0000001024A083211607047000000240140D9
:1043D00000280140003C0140FFFEF0FFFDF7F1FF27
:1043E000FFFD3FFF0246002013680B400BB1012088
:1043F00000E000207047CA430260704770B5024673
:104400000020002300240B125568CEB205EA0604F2
:1044100015681D4015B10CB1012000E0002070BDF1
:1044200000220A12D34303607047000010B58CB01D
:1044300004461E230BAA03A9204600F0ABFE009001
:10444000009810B101200CB010BD9DF82C00044460
:1044500000200B900EE040489DF82C2050F82210D0
:1044600003A800F0FFFD00B908E09DF82C00401CF7
:10447000C0B20B909DF82C000728ECD300BF9DF82C
:104480002C00072863D2DFE800F004053C5E656479
:10449000630000BF31A001F07BF831A001F078F893
:1044A0003FA001F075F84EA001F072F85CA001F099
:1044B0006FF86BA001F06CF879A001F069F886A0A4
:1044C00001F066F88BA001F063F890A001F060F8AD
:1044D00094A001F05DF899A001F05AF89EA001F0B7
:1044E00057F8A4A001F054F8B0A001F051F8BDA015
:1044F00001F04EF8C8A001F04BF8D4A001F048F844
:104500009AE216A001F044F8E0A001F041F8002082
:104510000B900EE0ED4800689DF82C2000EBC200E7
:104520004168EBA001F034F89DF82C00401CC0B2AB
:104530000B90E648007D9DF82C108842EADC07A02D
:1045400001F026F878E205A001F022F8C4E171E25A
:1045500045E219E2ECE100006C0000200D0A0000C9
:104560002D2D2D2D2D2D2D2D2D2D2D2D2D2D2D2D7B
:104570002D2D2D2D2D2D2D2D55534D415254205681
:10458000332E312D2D2D2D2D2D2D2D2D2D2D2D2D50
:104590002D2D2D2D2D2D2D2D2D2D2D200D0A0000F5
:1045A0002020202055534D415254CAC7D3C9414CF5
:1045B00049454E54454BBFAAB7A2B5C4D2BBB8F6C5
:1045C000C1E9C7C9B5C4B4AEBFDAB5F7CAD4BBA593
:1045D000BDBBD7E9BCFE2CCDA8B9FD200D0A00005B
:1045E000CBFC2CC4E3BFC9D2D4CDA8B9FDB4AEBFB7
:1045F000DAD6FACAD6B5F7D3C3B3CCD0F2C0EFC37C
:10460000E6B5C4C8CEBACEBAAFCAFD2CB2A2D6B4F3
:10461000D0D02ED2F2B4CB2CC4E3BFC90D0A000017
:10462000D2D4CBE6D2E2B8FCB8C4BAAFCAFDB5C4A6
:10463000CAE4C8EBB2CECAFD28D6A7B3D6CAFDD706
:10464000D62831302F3136BDF8D6C629A1A2D7D60B
:10465000B7FBB4AEA1A2BAAFCAFDC8EB0D0A000009
:10466000BFDAB5D8D6B7B5C8D7F7CEAAB2CECAFD8D
:10467000292CB5A5B8F6BAAFCAFDD7EEB6E0D6A7D5
:10468000B3D63130B8F6CAE4C8EBB2CECAFD2CB20C
:10469000A2D6A7B3D6BAAFCAFDB7B5200D0A00009F
:1046A000BBD8D6B5CFD4CABE2ED0C2D4F6B2CECAED
:1046B000FDCFD4CABEBDF8D6C6C9E8D6C3B9A6C414
:1046C000DC2CD0C2D4F6BDF8D6C6D7AABBBBB9A6DF
:1046D000C4DC2E0D0A000000BCBCCAF5D6A7B3D6B8
:1046E0003A7777772E6F70656E6564762E636F6D9F
:1046F0000D0A000055534D415254D3D037B8F6CF70
:10470000B5CDB3C3FCC1EE3A0D0A00003F3A2020FC
:1047100020202020BBF1C8A1B0EFD6FAD0C5CFA28F
:104720000D0A000068656C703A202020BBF1C8A11A
:10473000B0EFD6FAD0C5CFA20D0A00006C69737431
:104740003A202020BFC9D3C3B5C4BAAFCAFDC1D077
:10475000B1ED0D0A0A00000069643A2020202020F3
:10476000BFC9D3C3BAAFCAFDB5C44944C1D0B1EDC6
:104770000D0A0A006865783A20202020B2CECAFDD2
:104780003136BDF8D6C6CFD4CABE2CBAF3B8FABFFC
:10479000D5B8F12BCAFDD7D6BCB4D6B4D0D0BDF8AD
:1047A000D6C6D7AABBBB0D0A0A0000006465633AEF
:1047B00020202020B2CECAFD3130BDF8D6C6CFD4DD
:1047C000CABE2CBAF3B8FABFD5B8F12BCAFDD7D6FA
:1047D000BCB4D6B4D0D0BDF8D6C6D7AABBBB0D0AE0
:1047E0000A00000072756E74696D653A312CBFAABB
:1047F000C6F4BAAFCAFDD4CBD0D0BCC6CAB13B3028
:104800002CB9D8B1D5BAAFCAFDD4CBD0D0BCC6CAAA
:10481000B13B0D0A0A000000C7EBB0B4D5D5B3CC4C
:10482000D0F2B1E0D0B4B8F1CABDCAE4C8EBBAAFB7
:10483000CAFDC3FBBCB0B2CECAFDB2A2D2D4BBD8B3
:10484000B3B5BCFCBDE1CAF82E0D0A002D2D2D2DEF
:104850002D2D2D2D2D2D2D2D2D2D2D2D2D2D2D2D88
:104860002D2D2D2D2D2D414C49454E54454B2D2D93
:104870002D2D2D2D2D2D2D2D2D2D2D2D2D2D2D2D68
:104880002D2D2D2D2D2D2D200D0A00002D2D2D2D02
:104890002D2D2D2D2D2D2D2D2D2D2D2D2D2D2D2D48
:1048A0002D2D2D2D2DBAAFCAFDC7E5B5A52D2D2D6A
:1048B0002D2D2D2D2D2D2D2D2D2D2D2D2D2D2D2D28
:1048C0002D2D2D2D2D2D2D2D200D0A00B000002079
:1048D00025730D0A00000000EFA000F059FE002033
:1048E0000B901AE0FC4909689DF82C2001EBC201ED
:1048F00001AB02AA486803A900F072FCF648006800
:104900009DF82C1050F8312003A9F4A000F040FECF
:104910009DF82C00401CC0B20B90EF48007D9DF824
:104920002C108842DEDCAFF2CC3000F031FE83E0A8
:10493000AFF2D83000F02CFE0BAA03A9204600F0FD
:104940002BFD9DF82C00C8B9694603A800F0BDFBFB
:104950000B909DF82C0020B9E5A0009900F018FEFE
:104960000EE09DF82C00042801D002206BE5E3A0A6
:1049700000F00EFE0120D849C87501E0022062E572
:10498000DDA000F005FE57E0DBA000F001FE0BAA61
:1049900003A9204600F000FD9DF82C00C8B9694627
:1049A00003A800F092FB0B909DF82C0020B9D8A032
:1049B000009900F0EDFD0EE09DF82C00042801D0D8
:1049C000022040E5D5A000F0E3FD0020C249C875F3
:1049D00001E0022037E5C8A000F0DAFD2CE0C6A017
:1049E00000F0D6FD0BAA03A9204600F0D5FC9DF8E7
:1049F0002C00C8B9694603A800F067FB0B909DF82E
:104A00002C0078B9B449009881F8EC00084690F879
:104A1000EC0018B1C6A000F0BBFD07E0CBA000F091
:104A2000B7FD03E002200EE502200CE5B2A000F085
:104A3000AFFD01E0012006E500BF002003E510B551
:104A40000121C948FFF7B2FA4FF6FF71C648FFF7D8
:104A50007DFA0021C448FFF777FA00209E49C1F88B
:104A6000F00010BD10B50121BF48FFF796FA0128EC
:104A700008D19948D0F8F0004FF6FF7108449649E4
:104A8000C1F8F000B848FFF782FA9349D1F8F01066
:104A900008449149C1F8F0000846D0F8F00010BD74
:104AA00010B50121B048FFF784FA01280AD18A49DC
:104AB000086980470021AC48FFF746FA6421AA48FC
:104AC000FFF744FA0121A848FFF784FA10BD7FB52B
:104AD00005460C4601210420FEF773F8ADF8085096
:104AE000ADF804400020ADF80A00ADF8060001A9B9
:104AF0009D48FEF739FC012241219B48FEF7ABFFA0
:104B00001E208DF8000003208DF801008DF80200B2
:104B100001208DF803006846FDF7F9FB012192485A
:104B2000FEF77EFF7FBD10B5044604EBC40000EB2A
:104B300004100122C2EB800081B24FF47A70FFF7BB
:104B4000C6FF01206449C87510BD30B595B0054653
:104B500013AB12AA09A9284600F042FB044614B17F
:104B6000204615B030BD0020149026E05A4909684F
:104B70009DF8502001EBC20113AB11AA486801A9AE
:104B800000F02EFB04460CB12046EAE709A901A873
:104B900000F068FA60B99DF844009DF8481088421A
:104BA00001DD0220DDE79DF850004B4988750AE0E1
:104BB0009DF85000401CC0B214904748007D9DF8FD
:104BC00050108842D2DC00BF4348007D9DF8501051
:104BD000884201D10420C4E714A9284600F04DFC06
:104BE00004460CB12046BCE79DF850003A49487590
:104BF0000020B6E72DE9F0419AB03748847D007D6A
:104C0000A04202DC1AB0BDE8F0813349096801EB2B
:104C1000C40106AB07AA486808A900F0E1FA08A990
:104C200052A000F0B5FC0026BAE02B48008B012111
:104C3000B1400840D8B122214EA000F0A9FC304676
:104C400000F00EFC24492431471839464AA000F0F0
:104C50009FFC222147A000F09BFC304600F000FCA6
:104C60001D492431084410A941F826008EE0304641
:104C700000F0F6FB18492431085810A941F8260025
:104C80001548C07D30B910A850F826103BA000F0A0
:104C90007FFC7BE074E000002D2D2D2D2D2D2D2D82
:104CA0002D2D2D2D2D2D2D2D2D2D2D2D2D2D2D2D34
:104CB0002DBAAFCAFD204944202D2D2D2D2D2D2D8F
:104CC0002D2D2D2D2D2D2D2D2D2D2D2D2D2D2D2D14
:104CD0002D2D2D2D200D0A00B000002025732069F8
:104CE000642069733A0D0A3058253038580D0A008F
:104CF0004845583A305825580D0A00003136BDF85D
:104D0000D6C6B2CECAFDCFD4CABE210D0A0000005D
:104D10004445433A256C750D0A0000003130BDF85A
:104D2000D6C6B2CECAFDCFD4CABE210D0A0000003D
:104D300052756E2054696D652043616C63756C61BA
:104D400074696F6E204F4E0D0A00000052756E2080
:104D500054696D652043616C63756C6174696F6E35
:104D6000204F46460D0A0000000800400D0A25733A
:104D7000280000002563000025730000256C7500E5
:104D800010A850F8261095A000F002FC9DF81C0019
:104D9000401EB04202D093A000F0FAFB701CC6B2D5
:104DA0009DF81C008642FFF640AF8FA000F0F0FB9C
:104DB000FFF745FE8D48407D0B280DD2DFE800F05F
:104DC000060D151E27323F4E5F728700874909681E
:104DD00051F834008047054690E0844A126852F842
:104DE000341010988847054688E0804B1B6853F8BC
:104DF0003420DDE91001904705467FE07B4F3F6896
:104E000057F8343010A807C89847054676E0DFF811
:104E1000DCC1DCF800C05CF8347010A80FC8B847DB
:104E200005466BE01498DFF8C4C10090DCF800C0C0
:104E30005CF8347010A80FC8B84705465EE0DDE99D
:104E40001401DFF8A8C1CDE90001DCF800C05CF86E
:104E5000347010A80FC8B84705464FE0DDE91412BA
:104E60001698DFF888C1CDE900120290DCF800C086
:104E70005CF8347010A80FC8B84705463EE0DDE97D
:104E80001423DDE91610DFF864C1CDE90023CDE974
:104E90000210DCF800C05CF8347010A80FC8B847E6
:104EA00005462BE0DDE91523DDE91710CDE90123E7
:104EB000CDE903101498DFF834C10090DCF800C08D
:104EC0005CF8347010A80FC8B847054616E0DDE955
:104ED0001623DDE91810CDE90223CDE90410DDE940
:104EE0001401DFF808C1CDE90001DCF800C05CF86E
:104EF000347010A80FC8B847054600BF00BFFFF7C1
:104F0000B1FD9DF8180001280CD13848C07D20B9AA
:104F1000294637A000F03CFB07E0294636A000F008
:104F200037FB02E033A000F033FB304890F8EC0090
:104F300088B12E48D0F8F0000A21B0FBF1F201FB55
:104F400012072A48D0F8F000B0FBF1F83A46414683
:104F50002CA000F01DFB00BF54E670B5314800885E
:104F600000F40040002833D02E48057800202E4958
:104F700048551E4881682C48884704461CB91B497F
:104F8000C868804721E02848FFF750FA0546012D00
:104F900000D02C46CCB1012C06D0022C08D0032C1A
:104FA0000AD0042C10D10BE020A000F0F1FA0BE0A5
:104FB00021A000F0EDFA07E022A000F0E9FA03E0FA
:104FC00023A000F0E5FA00BF00BF002015490880CB
:104FD00070BD014608687047016070473058255819
:104FE000000000002C00000029000000B00000209C
:104FF0003D256C753B0D0A003D305825583B0D0A88
:105000000000000046756E6374696F6E2052756E05
:105010002054696D653A25642E2531646D730D0A3F
:105020000000000054000020AE050020BAAFCAFD09
:10503000B4EDCEF3210D0A00B2CECAFDB4EDCEF32D
:10504000210D0A00B2CECAFDCCABB6E0210D0A009C
:10505000CEB4D5D2B5BDC6A5C5E4B5C4BAAFCAFDF8
:10506000210D0A0002460AE010780B78984201D020
:1050700001207047107800B902E0521C491CF3E788
:1050800000BF0020F5E706E002780A70027802B956
:1050900002E0401C491CF7E700BF704701460020B2
:1050A00005E00A7802B903E0421CD0B2491CF8E7D7
:1050B00000BF704710B50246012000E050430B00CE
:1050C000A1F10104E1B2F9D110BD2DE9F043074689
:1050D0000E4600254FF00A083C46002030601FE0D5
:1050E0002078392802DC207830280ADA207846280F
:1050F00002DC2078412804DA2078582809D1012DD3
:1051000007D12078412801DB4FF01008681CC5B298
:1051100005E0207800B904E00120BDE8F083641CBC
:10512000DEE700BF3C46B8F1100F0FD1032D01DAC6
:105130000220F2E72078302806D16078582803D181
:10514000A41CA81EC5B204E00320E6E70DB90420A4
:10515000E3E71BE00DB1681EC5B22078392806DCF4
:105160002078302803DB2078A0F1300902E0207895
:10517000A0F1370929464046FFF79CFF316809FB3B
:1051800000103060641C207800B900E0E2E700BF46
:105190000020C2E710B50446002010700BE0207814
:1051A0000870641C491C1078401C107010789842DC
:1051B00001DB012010BD2078202802D020780028B3
:1051C000EDD10020087000BFF4E70146491C00E063
:1051D000491C0878202801D10029F9D108787047A6
:1051E0002DE9FF4F85B080468946002700200490B6
:1051F0000390012002904FF0000B002544461DE073
:105200002078202816D005F07F00052812DA0DB985
:1052100045F0800505F07F00042803D120782A2876
:1052200000D00EE0207805F07F010DF80100681C29
:10523000C5B202E0852D00D103E0641C207800286F
:10524000DED100BF8DB1002005F07F010DF8010017
:10525000CBA16846FFF706FF18B900210898017036
:1052600002E001210898017000254FF0000A444631
:1052700014E0641C0AF1010000F0FF0A20782028E5
:1052800002D020782A2809D12046FFF79EFF064643
:10529000282E03D02A2E01D0CDF810A0207828285F
:1052A00002D020780028E4D14446049810B1049834
:1052B000401C04444FF0000A002654E0207810B946
:1052C0004FF0010A50E02078282803D116B9781C45
:1052D000C7B213E02078292808D13EB917B1781E4B
:1052E000C7B201E04FF0010A47B93DE0207822281B
:1052F00004D10EB9012000E00020064647B920780D
:1053000020282FD0207889F8000009F1010929E030
:1053100020782C2804D101200290681CC5B214E02A
:105320002078202811D0207828280ED04DB9BBF144
:10533000050F06DA20780DF80B000BF1010000F0E4
:10534000FF0B0298401CC0B20290012F0AD10298B4
:10535000022807D10298401CC0B202900398401C5A
:10536000C0B20390641CA9E700BF0398012809D1CB
:1053700000200DF80B0082A16846FFF773FE08B904
:1053800000200390079903980870002089F8000016
:10539000504609B0BDE8F08FF0B503461546002031
:1053A00000220026002455E01F782C2F01D104B9DB
:1053B00001221F78292F01D01F780FB904B94AE0C4
:1053C000002E34D11F78302F02DB1F78392F11DDEA
:1053D0001F78612F02DB1F78662F0BDD1F78412FAE
:1053E00002DB1F78462F05DD1F78582F02D01F786B
:1053F000782F0CD102B12EE01F78612F03DB1F78CC
:10540000203F0F7001E01F780F70491C1FE01F78CC
:10541000222F04D102B11EE00126012417E01F78DB
:10542000202F14D01F782C2F11D0FF2613E01F78C7
:10543000222F00D1002402B10DE044B11F785C2F6F
:1054400002D15B1C471CF8B21F780F70491C471C27
:10545000F8B25B1CA8E700BF00270F702E70F0BDEC
:1054600002460020002105E0474B5B5C0344D8B2B4
:105470004B1CD9B29142F7DB70472DE9F043B5B030
:1054800005460F460024002604E000213E488155D1
:10549000701CC6B20A2EF8DB06E06D1C287818B91D
:1054A000012035B0BDE8F08328782828F5D16D1C9F
:1054B00061E034AA69462846FFF76EFF0646354488
:1054C0009DF8D00020B1012827D0FF284CD149E019
:1054D0009DF8000000B333A96846FFF7F6FD0646C5
:1054E0000EB10220DDE72046FFF7BAFF26490A3158
:1054F000339A0A50A1F12400008B0121A140884376
:1055000021491A39088304211F480155601CC4B27F
:105510000A2C01DD0320C4E726E06846FFF7BEFD44
:10552000401C00F0FF082046FFF79AFF16490A3199
:1055300000EB010949466846FFF7A5FD12481A38F5
:10554000018B0120A040014388B20F491A3908831A
:105550000D4800F80480601CC4B20A2C01DD032051
:105560009FE701E002209CE700BF2878292801D0AE
:10557000287800B900E09CE700BF3C70002090E76D
:10558000766F696400000000CA00002070470000C8
:105590000FB4044910B503AA029800F0F5F910BC45
:1055A0005DF814FB5000002070B504468569006862
:1055B000C10601D5302600E02026C00707D070BD07
:1055C000D4E9012130469047206A401C20626D1EBC
:1055D000F6D570BD70B5044685690078C00707D15F
:1055E00070BDD4E9012120209047206A401C206230
:1055F0006D1EF6D570BD70B50C460546012A05D066
:105600002878800600D5EA69002302E0012305E03E
:105610005B1C934202D2E05C0028F9D1A869E6182D
:10562000C01AA861286A184428622846FFF7BCFF00
:1056300004E0D5E9012114F8010B9047B442F8D3F6
:105640002846FFF7C7FF70BD2DE9F041064600244C
:1056500010687529314616A510D0AFF300800028D8
:1056600002DA404213A507E031688A0701D512A586
:1056700002E0490704D511A5012401E0AFF3008041
:1056800000210A2206F1240709E0B0FBF2FCB0FB7E
:10569000F2F302FB1C00303078541846491C0028F5
:1056A000F3D123462A463046BDE8F04100F0FCB86D
:1056B000000000002D0000002B0000002000000072
:1056C00070B504460D4621461068AFF3008021886E
:1056D000090502D50F4A7A4402E00E4A7A440E3296
:1056E000002104F1240305E000F00F060009965D97
:1056F0005E54491C0028F7D120780023000704D508
:10570000702D02D009B1022311322046BDE870404D
:1057100000F0CAB85C2200002DE9F05F894604461B
:105720004FF0000ADFF874B1FB44C0F820A0204617
:10573000E1688847002874D0252806D0D4E90121E3
:105740009047206A401C2062F1E700265F46204611
:10575000E16888472028054607DB312D05D27819F6
:1057600010F8200C08B10643F1E7B00701D526F088
:105770000406C4F81CA00027C4F818A02A2D09D0DC
:10578000284600F05FF938B304EB8708303DC8F8CD
:10579000185019E059F8041B204604EB8702916168
:1057A000E1688847012F054618D1E069002820DA12
:1057B00026F020061DE0D8F8180000EB800005EB6D
:1057C00040003038C8F818002046E1688847054690
:1057D00000F038F90028EED1012F0AD02E2D08D183
:1057E0002046E16888477F1C0546022F46F02006C8
:1057F000C4DBA069002803DA404246F00106A0613C
:10580000F00701D026F010066C2D0BD0682D09D0C2
:105810004C2D39D06A2D35D0742D35D07A2D33D01A
:1058200016E038E0E1682F4620468847B842054632
:1058300009D16C2F26D04FF48060E16806432046E2
:105840008847054604E06C2F1AD04FF48070064359
:105850000DB3A5F14100192802D8203546F40066A1
:105860004A462946204626604E46FAF7BBFC80B1E0
:1058700001280BD0F61D26F0070000F1080956E7B5
:105880004020E4E78020D8E70020D6E706F10409AD
:105890004DE7284652E7206ABDE8F09F322200001B
:1058A00070477047704770472DE9F0470D4699469D
:1058B0009246044600F124080168880604D5E06990
:1058C00021F01001216000E00120A84201DD471B0A
:1058D00000E00027A1697A1902EB0900081AA0610B
:1058E0002078C00602D42046FFF75EFE002608E0BE
:1058F000D4E901211AF806009047206A401C761C62
:1059000020624E45F4DB2078C0060AD52046FFF71A
:105910004BFE06E0D4E9012130209047206A401C6C
:105920002062381EA7F10107F4DC07E0D4E9012169
:1059300018F805009047206A401C2062281EA5F137
:105940000105F3DC2046FFF745FE2078000602D56E
:105950000220BDE8F0870120FBE710B5436913B1D1
:10596000AFF3008001E0FFF746FE012010BD127882
:1059700000F124010A7000224A700122EDE711684B
:105980004FF0FF32E9E70000074B70B50D467B444E
:1059900000F011F80446284600F020F810B14FF04E
:1059A000FF3070BD204670BDF9C7FFFF01694A1C7A
:1059B00002610878704700B58FB0CDE90131002150
:1059C000059105497944CDE9031011466846FFF772
:1059D000A3FE0FB000BD0000E5FFFFFF007B00F05D
:1059E00080007047754600F029F8AE46050069460C
:1059F000534620F00700854618B020B5FCF770FC30
:105A0000BDE820404FF000064FF000074FF00008BF
:105A10004FF0000B21F00701AC46ACE8C009ACE840
:105A2000C009ACE8C009ACE8C0098D46704704461F
:105A3000AFF300802046FAF7F3FB00000048704700
:105A40007806002030380A2801D201207047002053
:105A50007047000021F00042A2F16052B2F5801FB1
:105A600001F0004328BFD2F17F6C0BD95FEA001C24
:105A700043EAC20242EB507018BF704728BF20F0C3
:105A800001007047B2F5801FBCBF184670474FEA4F
:105A9000410C1CF5001F02D2084600F0DCBA70B5BC
:105AA00000F0E4F800000089FFF7F6BF4FF0004077
:105AB000A0F58000704700004FEA41034FEA5353BE
:105AC000A3F58063D3F11E03C8BFD3F1210C0CDD15
:105AD0004FF0004242EAC12242EA505232FA03FC3D
