:03000000020DA846
:0C0DA800787FE4F6D8FD758107020DEF9E
:1012E9003A003030006D6F64653A007365745F735E
:0612F9003A003030300025
:10100200420026000042001400004200120000428A
:1010120000100000420024000042002000004200B4
:101022000A0000420028000042001E000042002A7E
:1010320000004200040000420006000042002200BC
:101042000042001C0000420016000042000E000197
:1010520042001A0000420008000142000200004261
:041062000000000189
:1005FE001212FF120C6E7BFF7A1279E9E4FD7F1066
:10060E001210677BFF7A1279E9E4FD7F28121067DA
:10061E007BFF7A1279E9E4FD7F401210677BFF7A47
:10062E001279EBE4FDFF1210677BFF7A1279EBE48F
:10063E00FD7F181210677BFF7A1279EBE4FD7F3095
:10064E001210677BFF7A1279EBE4FD7F4812106778
:10065E007BFF7A1279EE7D027F101210677BFF7A94
:10066E001279F47D047F101210677BFF7A1279FBEA
:10067E007D067F401210677BFF7A1279FB7D047F27
:10068E00401210677BFF7A1279FB7D06E4FF121091
:10069E006790001AE0FAA3E0FB9000307401F0A31B
:1006AE007410F07D027F38120BBF900026E0FAA383
:1006BE00E0FB9000307402F0A37410F0E4FD7F486C
:1006CE00120BBF900014E0FAA3E0FB90003074020E
:1006DE00F0A37410F0E4FD7F30120BBF900012E017
:1006EE00FAA3E0FB9000307402F0A37410F0E4FD66
:1006FE007F18120BBF900010E0FAA3E0FB900030C1
:10070E007402F0A37410F0E4FDFF120BBF90002AE8
:10071E00E0FFA3E090000CCFF0A3EFF0120F2290B9
:10072E000006E07004A3E06401703C90001BE0043E
:10073E00F0700690001AE004F0D390001BE09404D1
:10074E0090001AE0648094804004E4F0A3F09000DE
:10075E001AE0FAA3E0FB9000307401F0A37410F0DD
:10076E007D027F38120BBF900022E07004A3E0647C
:10077E0001703590001BE024FFF090001AE034FF6A
:10078E00F0C3E0648094805006E4F0A37404F0900B
:10079E00001AE0FAA3E0FB9000307401F0A374108D
:1007AE00F07D027F38120BBF90001AE0FEA3E0FF2F
:1007BE004E701A90000EE0FCA3E0FD64014C700335
:1007CE0002093AED4C6003020A7902094EEF640108
:1007DE004E600302092A900016E07004A3E0640143
:1007EE00705690000BE004F0700690000AE004F0E2
:1007FE00C390000BE0940590000AE0648094805052
:10080E00077402F0A37458F0D390000BE094589044
:10081E00000AE0648094824006E4F0A37405F09030
:10082E00000AE0FAA3E0FB9000307404F0A3741009
:10083E00F07D047F40120BBF90001CE07004A3E01B
:10084E006401705490000BE024FFF090000AE03435
:10085E00FFF0D3A3E0945890000AE06480948240A5
:10086E0006E4F0A37405F0C390000BE0940590002D
:10087E000AE06480948050077402F0A37458F090DC
:10088E00000AE0FAA3E0FB9000307404F0A37410A9
:10089E00F07D047F40120BBF900002E0FEA3E0FF4C
:1008AE0064014E703790002AE07002A3E0702D9024
:1008BE00001EE0FCA3E0FD90000AE06C7003A3E0D4
:1008CE006D6003020A7990002AF0A3740AF0E49096
:1008DE00001EF0A3F0900002F0A38057EF64014ECB
:1008EE006003020A7990002AE07004A3E0640A60B3
:1008FE0003020A7990001EE0FEA3E0FF90000AE0DA
:10090E006E7003A3E06F6003020A7990002AF0A3D1
:10091E00F090001EF0A3F0900002802790001AE0E5
:10092E00FEA3E0FF64024E702230970D90002AF075
:10093E00A3740AF0D28C020A79309703020A79E482
:10094E0090002AF0A3F0C28C020A79EF64034E6085
:10095E00030209F1900016E07004A3E06401703CFC
:10096E0090002BE004F0700690002AE004F0D39083
:10097E00002BE0940A90002AE0648094804004E406
:10098E00F0A3F090002AE0FAA3E0FB90003074038D
:10099E00F0A37410F07D06E4FF120BBF90001CE074
:1009AE007004A3E064016003020A7990002BE02436
:1009BE00FFF090002AE034FFF0C3E0648094805092
:1009CE0006E4F0A3740AF090002AE0FAA3E0FB908C
:1009DE0000307403F0A37410F07D06E4FF120BBF19
:1009EE00020A7990001AE07004A3E06404707C900F
:1009FE000002E07004A3E0640170701212B31211D1
:100A0E0033900026E0FAA3E0FB9000307402F0A3CE
:100A1E007410F0E4FD7F48120BBF900014E0FAA3AF
:100A2E00E0FB9000307402F0A37410F0E4FD7F3010
:100A3E00120BBF900012E0FAA3E0FB90003074029C
:100A4E00F0A37410F0E4FD7F18120BBF900010E0BD
:100A5E00FAA3E0FB9000307402F0A37410F0E4FDF2
:100A6E00FF120BBFE4900002F0A3F0120A821210E4
:040A7E00FD02071B53
:100F2200E4FFFE120E34900018EEF0A3EFF0EE7024
:100F320061EF14602814602A14602C146039146064
:100F4200472405704DE4900006F0A3F0900022F0D3
:100F5200A3F090001CF0A3F09000168016900006FB
:100F62008020900022801B90001CE4F0A304F0E497
:100F720090000EF0A3F022900016E4F0A304F0908B
:100F8200000EE4F0A304F022900002E4F0A304F0C7
:030F9200D28C22DC
:10127700D3EF9400EE940040147D387C07ED1D7089
:0D128700011CED4C70F7EF1F70E61E80E3B8
:011294002237
:100E3400EF64014E7007900000F0A304F0900000EE
:100E4400E07004A3E06401704430A20C30A30930C4
:100E5400A40630A50320A6357F0A7E00121277E48B
:100E6400900000F0A3F020A204FE7F012220A3053D
:100E74007E007F022220A4057E007F032220A50598
:100E84007E007F042220A61C7E007F052230A2144F
:100E940030A31130A40E30A50B30A608900000E456
:070EA400F0A304F0E4FEFFDF
:010EAB002224
:1012B300E4FD7F011211C2E4FD7F021211C2E4FDBD
:0C12C3007F031211C2E4FD7F040211C27F
:10119600900026A3E0FD7F011211C2900014A3E087
:1011A600FD7F021211C2900012A3E0FD7F0312110F
:0C11B600C2900010A3E0FD7F040211C2F3
:101133007F01121235900026E4F0A3EFF07F021234
:101143001235900014E4F0A3EFF07F0312123590F0
:101153000012E4F0A3EFF07F04121235900010E4C4
:05116300F0A3EFF022F3
:100A8200900020E0B43033A3E0B4D42E90001FE0F5
:100A920004F0700690001EE004F0E4900020F0A341
:100AA200F090001EE0FAA3E0FB9000307404F0A383
:100AB2007410F07D067F40120BBF900024E064307A
:100AC2007004A3E064D46003020BBE900027E0042C
:100AD200F07006900026E004F0121196E4900024D3
:100AE200F0A3F0A3E0FAA3E0FB9000307402F0A3BD
:100AF2007410F0E4FD7F48120BBF900026E07004F2
:100B0200A3E0643C6003020BBE900026F0A3F090C9
:100B12000015E004F07006900014E004F012119643
:100B2200900014E0FAA3E0FB9000307402F0A3748A
:100B320010F0E4FD7F30120BBF900014E07004A3AC
:100B4200E0643C7077900014F0A3F0900013E0048E
:100B5200F07006900012E004F0900012E0FAA3E0B8
:100B6200FB9000307402F0A37410F0E4FD7F1812C1
:100B72000BBF900012E07004A3E0643C703E900052
:100B820012F0A3F0900011E004F07006900010E063
:100B920004F0900010E0FAA3E0FB9000307402F041
:100BA200A37410F0E4FDFF120BBF900010E070047C
:0D0BB200A3E0641E7006900010F0A3F02276
:1010FD00D3900005E0940A900004E0648094804051
:10110D0004E4F0A3F090002AE0FEA3E0FFC39000FA
:10111D0005E09FEE6480F8900004E0648098500331
:06112D00D29022C29022C4
:10000E0000000000000000000000000000000000E2
:10001E00000000F800000000000000333000000077
:10002E0000100C06100C060000000000000000007E
:10003E0040C07840C0784000043F04043F040400F0
:10004E00007088FC08300000001820FF211E000000
:10005E00F008F000E018000000211C031E211E0015
:10006E0000F00888700000001E212324192721109B
:10007E0010160E000000000000000000000000003E
:10008E00000000E0180402000000000718204000E5
:10009E0000020418E00000000040201807000000D5
:1000AE00404080F0804040000202010F0102020039
:1000BE00000000F0000000000101011F010101001D
:1000CE00000000000000000080B070000000000082
:1000DE00000000000000000000010101010101010B
:1000EE0000000000000000000030300000000000A2
:1000FE000000000080601804006018060100000077
:10010E0000E010080810E000000F102020100F0073
:10011E00001010F8000000000020203F20200000FA
:10012E000070080808887000003028242221300052
:10013E0000300888884830000018202020110E005A
:10014E000000C02010F8000000070424243F240003
:10015E0000F80888880808000019212020110E00D8
:10016E0000E0108888180000000F112020110E00EA
:10017E0000380808C83808000000003F00000000E2
:10018E000070880808887000001C222121221C00A3
:10019E0000E010080810E0000000312222110F00CC
:1001AE00000000C0C0000000000000303000000061
:1001BE0000000080000000000000806000000000D1
:1001CE0000008040201008000001020408102000EA
:1001DE004040404040404000040404040404040035
:1001EE0000081020408000000020100804020100CA
:1001FE00007048080808F0000000003036010000CA
:10020E00C030C828E810E0000718272423140B007C
:10021E000000C038E0000000203C230202273820F6
:10022E0008F8888888700000203F202020110E00DA
:10023E00C0300808080838000718202020100800D1
:10024E0008F808080810E000203F202020100F00BA
:10025E0008F88888E8081000203F20202320180086
:10026E0008F88888E8081000203F200003000000EE
:10027E00C03008080838000007182020221E02008F
:10028E0008F808000008F808203F210101213F204E
:10029E00000808F8080800000020203F2020000079
:1002AE0000000808F8080800C08080807F00000069
:1002BE0008F888C028180800203F200126382000A2
:1002CE0008F8080000000000203F20202020300009
:1002DE0008F8F800F8F80800203F003F003F200023
:1002EE0008F830C00008F808203F200007183F002B
:1002FE00E01008080810E0000F10202020100F005A
:10030E0008F808080808F000203F2101010100004C
:10031E00E01008080810E0000F18242438504F0091
:10032E0008F8888888887000203F2000030C302051
:10033E0000708808080838000038202121221C008F
:10034E00180808F8080818000000203F20000000D8
:10035E0008F808000008F808001F202020201F00C1
:10036E000878880000C83808000007380E01000021
:10037E00F80800F80008F800033C0700073C0300EB
:10038E00081868808068180820302C03032C302051
:10039E000838C800C83808000000203F20000000C0
:1003AE0010080808C8380800203826212020180018
:1003BE00000000FE020202000000007F40404000EC
:1003CE00000C30C000000000000000010638C00024
:1003DE0000020202FE000000004040407F000000CC
:1003EE0000000402020204000000000000000000F1
:1003FE0000000000000000008080808080808080EF
:10040E0000020204000000000000000000000000D6
:10041E0000008080808000000019242222223F20CC
:10042E0008F8008080000000003F112020110E000F
:10043E000000008080800000000E1120202011009E
:10044E00000000808088F800000E112020103F2050
:10045E000000808080800000001F222222221300D4
:10046E00008080F0888888180020203F202000001F
:10047E000000808080808000006B949494936000D4
:10048E0008F8008080800000203F210000203F20DF
:10049E0000809898000000000020203F20200000DF
:1004AE00000000809898000000C08080807F0000CF
:1004BE0008F8000080808000203F24022D302000AC
:1004CE00000808F8000000000020203F2020000057
:1004DE008080808080808000203F20003F20003F71
:1004EE008080008080800000203F210000203F207F
:1004FE000000808080800000001F202020201F0030
:10050E00808000808000000080FFA12020110E005E
:10051E000000008080808000000E112020A0FF804F
:10052E00808080008080800020203F2120000100FC
:10053E000000808080808000003324242424190051
:10054E00008080E0808000000000001F202000005E
:10055E008080000000808000001F202020103F209F
:10056E00808080000080808000010E30080601002F
:10057E0080800080008080800F300C030C300F00D4
:10058E0000808000808080000020312E0E312000FF
:10059E00808080000080808080818E70180601002F
:1005AE0000808080808080000021302C222130004D
:1005BE0000000000807C020200000000003F40406E
:1005CE0000000000FF00000000000000FF0000001F
:1005DE000002027C800000000040403F000000004E
:1005EE0000060101020204040000000000000000E9
:1012CF00EF4E60157D087C07ED1DAA0470011C4AC6
:0912DF0070F6EF1F70EA1E80E7B3
:0112E80022E3
:0511680012116DE4FF0F
:10116D00ED6004D2868002C286C287E4FEC283EFA0
:10117D0030E704D2848002C284D283EF25E0FF0ED3
:08118D00EEB408E9D287D28616
:011195002237
:10125700AC07ED24B0FFE4FD12116DEC54F0C4545B
:101267000F4410FF12116DEC540F4401FF02116D72
:10121100E4FCEC24B0FFE4FD1211687F1012116DA3
:10122100E4FB7D01E4FF12116D0BEBB480F40CECD7
:03123100B408DF1F
:011234002297
:060EAC00AA07A905AF032F
:100EB200E4FCEF24E0FBEAD3947F4004E4FA09095E
:100EC200AF02AD01121257E4FC75F010EBA42CF541
:100ED20082E435F0F583E582240EF582E583340061
:100EE200F583E493FF7D0112116D0CECB408DAAFC7
:100EF20002E904FD121257E4FC75F010EBA42CF584
:100F020082E435F0F583E5822416F582E583340028
:0F0F1200F583E493FF7D0112116D0CECB408DA46
:010F210022AD
:07129500900035EFF0A90500
:10129C007F017E00AD0119ED600C900035E0FD7C06
:0612AC0000120D4180EE6E
:0112B2002219
:0E0BBF0090002CEFF0A3EDF0A3EAF0A3EBF012
:100BCD00E4900034F0900032F0900030E0FF90009F
:100BDD0032E0FEC39F4003020C6DC3EF9E14FD7FF8
:100BED000A12129590002EE0FCA3E0FDCFCDCFCEE2
:100BFD00CCCE120D537C007D0A120D53900033EDB7
:100C0D00F0A3E07030900030E014FF900032E0FE71
:100C1D00C39F5021A3E07017900031E0C3138EF0F5
:100C2D00A4FF90002CE02FFFA3E0FD7B20802590FA
:100C3D0000347401F0900031E0C313FFA3E0FEEF28
:100C4D008EF0A4FF90002CE02FFFA3E0FD90003369
:100C5D00E02430FB120EAC900032E004F0020BD613
:010C6D002264
:1010670090002CEFF0A3EDF0A3EBF0A3EAF0A3E9D7
:01107700F088
:10107800E4A3F090002EE0FBA3E0FAA3E0F9A3E0DC
:10108800F582758300120D14FB602790002CE0FF99
:10109800A3E0FD120EAC90002CE02408F0E0D394FD
:1010A800784007E4F0A3E02402F0900031E004F077
:0210B80080C1F5
:0110BA002213
:100C6E00D2857F647E001212CFC2857F647E001211
:100C7E0012CFD285E4FD7FAE1211687F1012116D76
:100C8E007F4012116D7F8112116D7FCF12116D7F1A
:100C9E00A112116D7FC812116D7FA612116D7FA862
:100CAE0012116D7F3F12116D7FD31211687FD51215
:100CBE00116D7F8012116D7FD912116D7FF112119E
:100CCE006D7FDA12116D7F1212116D7FDB12116DB5
:100CDE007F4012116D7F2012116D7F0212116D7FF8
:100CEE008D12116D7F1412116D7FA412116D7FA6DE
:100CFE0012116D7FAF12116D7FAF12116D121211A5
:060D0E00E4FDFF02125794
:1012FF00438901758CFF758AB0D2A9D2AFD28C22E7
:03000B00020F954C
:100F9500C0E0C083C082758CFF758AB0900002E006
:100FA5007004A3E06401701A90001AE07004A3E0D5
:100FB5006401700E900021E004F07006900020E0BE
:100FC50004F090000CE07004A3E0640A700E900039
:100FD50025E004F07006900024E004F090001AE08B
:100FE5007004A3E06403700E900005E004F0700641
:0D0FF500900004E004F0D082D083D0E03200
:05131E00121323D2A10F
:081323007F017E02DEFEDFFA0D
:01132B00229F
:081336007F0A7E64DEFEDFFA8F
:01133E00228C
:0F130F00D2A012131EC2A0121323C2A1021323D5
:0A132C00C2A012131ED2A002132368
:0210BB00AD077F
:1010BD00E4FBFAEDC4131313540124FF92A0ED25A4
:1010CD00E0FD12131EC2A11213230BEBB408E4D2E0
:1010DD00A0121323D2A130A00F0AEAD394C840F670
:0F10ED00C2A11213237F0022C2A11213237F017D
:0110FC0022D1
:1011EA00E4FDFCD2A0121323D2A1121323EC25E0B2
:1011FA00FCA2A0E4334CFC121323C2A11213230D48
:06120A00EDB408E4AF049E
:0112100022BB
:1011C200AC05A90712130F7FA01210BBAF011210BA
:1011D200BBAF041210BB12132C12133612133612A9
:0811E200133612133602133616
:02123500AC0704
:1012370012130F7FA01210BBAF041210BB12130FB3
:0F1247007FA11210BB1211EAAD0712132CAF05D5
:011256002275
:100DB4000205FEE493A3F8E493A34003F68001F252
:100DC40008DFF48029E493A3F85407240CC8C33340
:100DD400C4540F4420C8834004F456800146F6DF0F
:100DE400E4800B0102040810204080901002E47E8D
:100DF400019360BCA3FF543F30E509541FFEE49304
:100E0400A360010ECF54C025E060A840B8E493A3CA
:100E1400FAE493A3F8E493A3C8C582C8CAC583CAF5
:100E2400F0A3C8C582C8CAC583CADFE9DEE780BEAD
:011066000089
:100D1400BB010CE58229F582E5833AF583E0225094
:100D240006E92582F8E622BBFE06E92582F8E222DE
:0D0D3400E58229F582E5833AF583E49322F8
:100D4100EF8DF0A4A8F0CF8CF0A428CE8DF0A42EC6
:020D5100FE2280
:100D5300BC000BBE0029EF8DF084FFADF022E4CC84
:100D6300F875F008EF2FFFEE33FEEC33FCEE9DEC4D
:100D7300984005FCEE9DFE0FD5F0E9E4CEFD22ED93
:100D8300F8F5F0EE8420D21CFEADF075F008EF2FDD
:100D9300FFED33FD4007985006D5F0F222C398FDCE
:050DA3000FD5F0EA226B
:00000001FF
