:030000000207DC18
:0C07DC00787FE4F6D8FD75812502082323
:050003003A003030005E
:100C2500021000010216012C02180000020E00003D
:100C3500020C0000020A0000021200000208000176
:100868001205FE120C98D280D282C2817BFF7A00D8
:100878007903E4FD7F10120AF97BFF7A007903E41B
:10088800FD7F28120AF97BFF7A007903E4FD7F4097
:10089800120AF97BFF7A007905E4FDFF120AF97B59
:1008A800FF7A007905E4FD7F18120AF97BFF7A00C8
:1008B8007905E4FD7F30120AF97BFF7A007905E4B7
:1008C800FD7F48120AF91208ED1206A4C3E51B952C
:1008D80017E5166480F8E51A6480985004D2808081
:0508E800E5C28080E183
:100C9800758901758CFF758AB0D2A9D28CD2AF2222
:03000B00020B36AF
:100B3600C0E0C0D0758CFF758AB00513E51370024E
:100B46000512051BE51B7002051AD3942CE51A64E1
:100B56008094814006751A00751B00D0D0D0E03213
:1008ED00E4FFFE120A588E148F15E5147039E515C4
:1008FD0024FE601114601614601B24037029E4F5A6
:10090D0010F5118022751000751101801A751000F7
:10091D00751102801275100075110374FB2517F502
:10092D001774FF3516F516E51145107006D280C205
:10093D0082C281E511640145107006D280D282C257
:10094D0081E511640245107006D280C282D281C346
:10095D00E5179464E516648094805006751601754C
:03096D00172C2222
:100A5800EF64014E7005F508750901E50964014563
:100A680008703730B20930B30630B40320B52B7F95
:100A78000A7E00120C66E4F508F50920B204FE7F30
:100A8800012220B3057E007F022220B4057E007F6C
:100A9800032220B5177E007F042230B20F30B30C3A
:0F0AA80030B40930B506750800750901E4FEFF8A
:010AB700221C
:1006A400E51364D47004E51264306003020747055F
:1006B40019E51970020518E4F512F5137520027591
:1006C4002110AB19AA18FD7F481209E4E519643C0E
:1006D4004518706FF518F519050FE50F7002050E32
:1006E400752002752110FBAA0EE4FD7F301209E487
:1006F400E50F643C450E704BF50EF50F050DE50D49
:100704007002050C752002752110FBAA0CE4FD7F14
:10071400181209E4E50D643C450C7027F50CF50D41
:10072400050BE50B7002050A752002752110FBAA62
:100734000AE4FDFF1209E4E50B641E450A7004F5A2
:040744000AF50B2285
:0B0CC500EF1FAC0670011E4C70F62201
:10000E0000000000000000000000000000000000E2
:10001E00000000F800000000000000333000000077
:10002E0000100C06100C060000000000000000007E
:10003E0040C07840C0784000043F04043F040400F0
:10004E00007088FC08300000001820FF211E000000
:10005E00F008F000E018000000211C031E211E0015
:10006E0000F00888700000001E212324192721109B
:10007E0010160E000000000000000000000000003E
:10008E00000000E0180402000000000718204000E5
:10009E0000020418E00000000040201807000000D5
:1000AE00404080F0804040000202010F0102020039
:1000BE00000000F0000000000101011F010101001D
:1000CE00000000000000000080B070000000000082
:1000DE00000000000000000000010101010101010B
:1000EE0000000000000000000030300000000000A2
:1000FE000000000080601804006018060100000077
:10010E0000E010080810E000000F102020100F0073
:10011E00001010F8000000000020203F20200000FA
:10012E000070080808887000003028242221300052
:10013E0000300888884830000018202020110E005A
:10014E000000C02010F8000000070424243F240003
:10015E0000F80888880808000019212020110E00D8
:10016E0000E0108888180000000F112020110E00EA
:10017E0000380808C83808000000003F00000000E2
:10018E000070880808887000001C222121221C00A3
:10019E0000E010080810E0000000312222110F00CC
:1001AE00000000C0C0000000000000303000000061
:1001BE0000000080000000000000806000000000D1
:1001CE0000008040201008000001020408102000EA
:1001DE004040404040404000040404040404040035
:1001EE0000081020408000000020100804020100CA
:1001FE00007048080808F0000000003036010000CA
:10020E00C030C828E810E0000718272423140B007C
:10021E000000C038E0000000203C230202273820F6
:10022E0008F8888888700000203F202020110E00DA
:10023E00C0300808080838000718202020100800D1
:10024E0008F808080810E000203F202020100F00BA
:10025E0008F88888E8081000203F20202320180086
:10026E0008F88888E8081000203F200003000000EE
:10027E00C03008080838000007182020221E02008F
:10028E0008F808000008F808203F210101213F204E
:10029E00000808F8080800000020203F2020000079
:1002AE0000000808F8080800C08080807F00000069
:1002BE0008F888C028180800203F200126382000A2
:1002CE0008F8080000000000203F20202020300009
:1002DE0008F8F800F8F80800203F003F003F200023
:1002EE0008F830C00008F808203F200007183F002B
:1002FE00E01008080810E0000F10202020100F005A
:10030E0008F808080808F000203F2101010100004C
:10031E00E01008080810E0000F18242438504F0091
:10032E0008F8888888887000203F2000030C302051
:10033E0000708808080838000038202121221C008F
:10034E00180808F8080818000000203F20000000D8
:10035E0008F808000008F808001F202020201F00C1
:10036E000878880000C83808000007380E01000021
:10037E00F80800F80008F800033C0700073C0300EB
:10038E00081868808068180820302C03032C302051
:10039E000838C800C83808000000203F20000000C0
:1003AE0010080808C8380800203826212020180018
:1003BE00000000FE020202000000007F40404000EC
:1003CE00000C30C000000000000000010638C00024
:1003DE0000020202FE000000004040407F000000CC
:1003EE0000000402020204000000000000000000F1
:1003FE0000000000000000008080808080808080EF
:10040E0000020204000000000000000000000000D6
:10041E0000008080808000000019242222223F20CC
:10042E0008F8008080000000003F112020110E000F
:10043E000000008080800000000E1120202011009E
:10044E00000000808088F800000E112020103F2050
:10045E000000808080800000001F222222221300D4
:10046E00008080F0888888180020203F202000001F
:10047E000000808080808000006B949494936000D4
:10048E0008F8008080800000203F210000203F20DF
:10049E0000809898000000000020203F20200000DF
:1004AE00000000809898000000C08080807F0000CF
:1004BE0008F8000080808000203F24022D302000AC
:1004CE00000808F8000000000020203F2020000057
:1004DE008080808080808000203F20003F20003F71
:1004EE008080008080800000203F210000203F207F
:1004FE000000808080800000001F202020201F0030
:10050E00808000808000000080FFA12020110E005E
:10051E000000008080808000000E112020A0FF804F
:10052E00808080008080800020203F2120000100FC
:10053E000000808080808000003324242424190051
:10054E00008080E0808000000000001F202000005E
:10055E008080000000808000001F202020103F209F
:10056E00808080000080808000010E30080601002F
:10057E0080800080008080800F300C030C300F00D4
:10058E0000808000808080000020312E0E312000FF
:10059E00808080000080808080818E70180601002F
:1005AE0000808080808080000021302C222130004D
:1005BE0000000000807C020200000000003F40406E
:1005CE0000000000FF00000000000000FF0000001F
:1005DE000002027C800000000040403F000000004E
:1005EE0000060101020204040000000000000000E9
:100C6600EF4E60157D087C07ED1DAA0470011C4A35
:090C760070F6EF1F70EA1E80E722
:010C7F002252
:050B6600120B6BE4FF1F
:100B6B00ED6004D2868002C286C287E4FEC283EFA8
:100B7B0030E704D2848002C284D283EF25E0FF0EDB
:070B8B00BE08EAD287D28602
:010B92002240
:100C4600AC07ED24B0FFE4FD120B6BEC54F0C4547A
:100C56000F4410FF120B6BEC540F4401FF020B6B99
:100BE100E4FCEC24B0FFE4FD120B667F10120B6BEA
:100BF100E4FB7D01E4FF120B6B0BBB80F50CBC0821
:010C0100E111
:010C020022CF
:06097000AA07A905AF0370
:10097600E4FCEF24E0FBEAD3947F4004E4FA09099F
:10098600AF02AD01120C46E4FC75F010EBA42CF599
:1009960082E435F0F583E582240EF582E5833400A2
:1009A600F583E493FF7D01120B6B0CBC08DBAF02F1
:1009B600E904FD120C46E4FC75F010EBA42CF5825C
:1009C600E435F0F583E5822416F582E5833400F5F7
:0D09D60083E493FF7D01120B6B0CBC08DB6A
:0109E30022F1
:040C80008F25A9050E
:100C84007F017E00AD0119ED6009AD257C001207DE
:030C94007580F177
:010C9700223A
:0809E4008F1C8D1D8A1E8B1F64
:1009EC00E4F524F522E522C39520505FC3E520955C
:1009FC002214FD7F0A120C80AC1EAD1FCFCDCFCEC2
:100A0C00CCCE1207877C007D0A1207878D23E52444
:100A1C007020E52014FFE522C39F5016E523700FCC
:100A2C00E521C3138522F0A4251CFF7B20801375C0
:100A3C002401E521C3138522F0A4251CFFE5232402
:0B0A4C0030FBAD1D1209700522809ADE
:010A5700227C
:0A0AF9008F1C8D1D8B1E8A1F8920A3
:100B0300E4F521AB1EAA1FA920852182758300125B
:100B13000748FB601DAD1DAF1C1209707408251C2E
:100B2300F51CD394784007E4F51C051D051D05212C
:020B330080D16F
:010B3500229D
:1005FE00D2857F647E00120C66C2857F647E0012F7
:10060E000C66D285E4FD7FAE120B667F10120B6B6B
:10061E007F40120B6B7F81120B6B7FCF120B6B7FA8
:10062E00A1120B6B7FC8120B6B7FA6120B6B7FA8F0
:10063E00120B6B7F3F120B6B7FD3120B667FD512A3
:10064E000B6B7F80120B6B7FD9120B6B7FF1120B32
:10065E006B7FDA120B6B7F12120B6B7FDB120B6B45
:10066E007F40120B6B7F20120B6B7F02120B6B7F86
:10067E008D120B6B7F14120B6B7FA4120B6B7FA66C
:10068E00120B6B7FAF120B6B7FAF120B6B120BE16A
:06069E00E4FDFF020C4622
:050CB700120CBCD2A1EB
:080CBC007F017E02DEFEDFFA7B
:010CC400220D
:080CDA007F0A7E64DEFEDFFAF2
:010CE20022EF
:0F0CA800D2A0120CB7C2A0120CBCC2A1020CBC8D
:0A0CD000C2A0120CB7D2A0020CBCA7
:020AB800AD0788
:100ABA00E4FBFAEDC4131313540124FF92A0ED25AD
:100ACA00E0FD120CB7C2A1120CBC0BBB08E5D2A008
:100ADA00120CBCD2A130A00F0AEAD394C840F6C2C5
:0E0AEA00A1120CBC7F0022C2A1120CBC7F0125
:010AF80022DB
:100BBB00E4FDFCD2A0120CBCD2A1120CBCEC25E0C3
:100BCB00FCA2A0E4334204120CBCC2A1120CBC0D5B
:050BDB00BD08E5AF04B8
:010BE00022F2
:100B9300AC05A907120CA87FA0120AB8AF01120A6C
:100BA300B8AF04120AB8120CD0120CDA120CDA1213
:080BB3000CDA120CDA020CDA74
:020C0300AC073C
:100C0500120CA87FA0120AB8AF04120AB8120CA8D9
:0F0C15007FA1120AB8120BBBAD07120CD0AF05AE
:010C240022AD
:1007E800020868E493A3F8E493A34003F68001F2B7
:1007F80008DFF48029E493A3F85407240CC8C33312
:10080800C4540F4420C8834004F456800146F6DFE0
:10081800E4800B0102040810204080900C25E47E3F
:10082800019360BCA3FF543F30E509541FFEE493D5
:10083800A360010ECF54C025E060A840B8E493A39C
:10084800FAE493A3F8E493A3C8C582C8CAC583CAC7
:10085800F0A3C8C582C8CAC583CADFE9DEE780BE7F
:010C450000AE
:10074800BB010CE58229F582E5833AF583E0225066
:1007580006E92582F8E622BBFE06E92582F8E222B0
:0D076800E58229F582E5833AF583E49322CA
:10077500EF8DF0A4A8F0CF8CF0A428CE8DF0A42E98
:02078500FE2252
:10078700BC000BBE0029EF8DF084FFADF022E4CC56
:10079700F875F008EF2FFFEE33FEEC33FCEE9DEC1F
:1007A700984005FCEE9DFE0FD5F0E9E4CEFD22ED65
:1007B700F8F5F0EE8420D21CFEADF075F008EF2FAF
:1007C700FFED33FD4007985006D5F0F222C398FDA0
:0507D7000FD5F0EA223D
:00000001FF
